{"abi":[{"type":"function","name":"areAllProofsVerified","inputs":[{"name":"_formId","type":"uint256","internalType":"uint256"},{"name":"_user","type":"address","internalType":"address"}],"outputs":[{"name":"","type":"bool","internalType":"bool"}],"stateMutability":"view"},{"type":"function","name":"createForm","inputs":[{"name":"_title","type":"string","internalType":"string"},{"name":"_description","type":"string","internalType":"string"},{"name":"_questions","type":"string[]","internalType":"string[]"},{"name":"_isRequired","type":"bool[]","internalType":"bool[]"},{"name":"_requiresProof","type":"bool[]","internalType":"bool[]"}],"outputs":[],"stateMutability":"nonpayable"},{"type":"function","name":"emailExists","inputs":[{"name":"","type":"uint256","internalType":"uint256"},{"name":"","type":"string","internalType":"string"}],"outputs":[{"name":"","type":"bool","internalType":"bool"}],"stateMutability":"view"},{"type":"function","name":"formSubmitters","inputs":[{"name":"","type":"uint256","internalType":"uint256"},{"name":"","type":"uint256","internalType":"uint256"}],"outputs":[{"name":"","type":"address","internalType":"address"}],"stateMutability":"view"},{"type":"function","name":"forms","inputs":[{"name":"","type":"uint256","internalType":"uint256"}],"outputs":[{"name":"title","type":"string","internalType":"string"},{"name":"description","type":"string","internalType":"string"},{"name":"isActive","type":"bool","internalType":"bool"},{"name":"totalSubmissions","type":"uint256","internalType":"uint256"},{"name":"createdAt","type":"uint256","internalType":"uint256"},{"name":"creator","type":"address","internalType":"address"}],"stateMutability":"view"},{"type":"function","name":"getAllFormSubmissions","inputs":[{"name":"_formId","type":"uint256","internalType":"uint256"}],"outputs":[{"name":"","type":"tuple[]","internalType":"struct SwagForm.Submission[]","components":[{"name":"formId","type":"uint256","internalType":"uint256"},{"name":"username","type":"string","internalType":"string"},{"name":"email","type":"string","internalType":"string"},{"name":"answers","type":"string[]","internalType":"string[]"},{"name":"timestamp","type":"uint256","internalType":"uint256"},{"name":"submitter","type":"address","internalType":"address"}]}],"stateMutability":"view"},{"type":"function","name":"getAllForms","inputs":[],"outputs":[{"name":"titles","type":"string[]","internalType":"string[]"},{"name":"activeStatus","type":"bool[]","internalType":"bool[]"},{"name":"submissionCounts","type":"uint256[]","internalType":"uint256[]"},{"name":"creators","type":"address[]","internalType":"address[]"}],"stateMutability":"view"},{"type":"function","name":"getForm","inputs":[{"name":"_formId","type":"uint256","internalType":"uint256"}],"outputs":[{"name":"title","type":"string","internalType":"string"},{"name":"description","type":"string","internalType":"string"},{"name":"questionsCount","type":"uint256","internalType":"uint256"},{"name":"isActive","type":"bool","internalType":"bool"},{"name":"submissionsCount","type":"uint256","internalType":"uint256"},{"name":"createdAt","type":"uint256","internalType":"uint256"},{"name":"creator","type":"address","internalType":"address"}],"stateMutability":"view"},{"type":"function","name":"getFormQuestions","inputs":[{"name":"_formId","type":"uint256","internalType":"uint256"}],"outputs":[{"name":"","type":"tuple[]","internalType":"struct SwagForm.Question[]","components":[{"name":"questionText","type":"string","internalType":"string"},{"name":"isRequired","type":"bool","internalType":"bool"},{"name":"requiresProof","type":"bool","internalType":"bool"}]}],"stateMutability":"view"},{"type":"function","name":"getFormSubmitters","inputs":[{"name":"_formId","type":"uint256","internalType":"uint256"}],"outputs":[{"name":"","type":"address[]","internalType":"address[]"}],"stateMutability":"view"},{"type":"function","name":"getProofRequirements","inputs":[{"name":"_formId","type":"uint256","internalType":"uint256"}],"outputs":[{"name":"","type":"bool[]","internalType":"bool[]"}],"stateMutability":"view"},{"type":"function","name":"getStats","inputs":[],"outputs":[{"name":"totalFormsCount","type":"uint256","internalType":"uint256"},{"name":"totalSubmissionsCount","type":"uint256","internalType":"uint256"}],"stateMutability":"view"},{"type":"function","name":"getSubmission","inputs":[{"name":"_formId","type":"uint256","internalType":"uint256"},{"name":"_user","type":"address","internalType":"address"}],"outputs":[{"name":"","type":"tuple","internalType":"struct SwagForm.Submission","components":[{"name":"formId","type":"uint256","internalType":"uint256"},{"name":"username","type":"string","internalType":"string"},{"name":"email","type":"string","internalType":"string"},{"name":"answers","type":"string[]","internalType":"string[]"},{"name":"timestamp","type":"uint256","internalType":"uint256"},{"name":"submitter","type":"address","internalType":"address"}]}],"stateMutability":"view"},{"type":"function","name":"getUserForms","inputs":[{"name":"_user","type":"address","internalType":"address"}],"outputs":[{"name":"","type":"uint256[]","internalType":"uint256[]"}],"stateMutability":"view"},{"type":"function","name":"getUserStats","inputs":[{"name":"_user","type":"address","internalType":"address"}],"outputs":[{"name":"formsCreated","type":"uint256","internalType":"uint256"},{"name":"formsSubmitted","type":"uint256","internalType":"uint256"}],"stateMutability":"view"},{"type":"function","name":"hasSubmitted","inputs":[{"name":"_formId","type":"uint256","internalType":"uint256"},{"name":"_user","type":"address","internalType":"address"}],"outputs":[{"name":"","type":"bool","internalType":"bool"}],"stateMutability":"view"},{"type":"function","name":"isFormCreator","inputs":[{"name":"_formId","type":"uint256","internalType":"uint256"},{"name":"_user","type":"address","internalType":"address"}],"outputs":[{"name":"","type":"bool","internalType":"bool"}],"stateMutability":"view"},{"type":"function","name":"isProofVerified","inputs":[{"name":"_formId","type":"uint256","internalType":"uint256"},{"name":"_user","type":"address","internalType":"address"},{"name":"_questionIndex","type":"uint256","internalType":"uint256"}],"outputs":[{"name":"","type":"bool","internalType":"bool"}],"stateMutability":"view"},{"type":"function","name":"proofVerified","inputs":[{"name":"","type":"uint256","internalType":"uint256"},{"name":"","type":"address","internalType":"address"},{"name":"","type":"uint256","internalType":"uint256"}],"outputs":[{"name":"","type":"bool","internalType":"bool"}],"stateMutability":"view"},{"type":"function","name":"setFormActive","inputs":[{"name":"_formId","type":"uint256","internalType":"uint256"},{"name":"_active","type":"bool","internalType":"bool"}],"outputs":[],"stateMutability":"nonpayable"},{"type":"function","name":"setProofVerified","inputs":[{"name":"_formId","type":"uint256","internalType":"uint256"},{"name":"_user","type":"address","internalType":"address"},{"name":"_questionIndex","type":"uint256","internalType":"uint256"},{"name":"_verified","type":"bool","internalType":"bool"}],"outputs":[],"stateMutability":"nonpayable"},{"type":"function","name":"submissions","inputs":[{"name":"","type":"uint256","internalType":"uint256"},{"name":"","type":"address","internalType":"address"}],"outputs":[{"name":"formId","type":"uint256","internalType":"uint256"},{"name":"username","type":"string","internalType":"string"},{"name":"email","type":"string","internalType":"string"},{"name":"timestamp","type":"uint256","internalType":"uint256"},{"name":"submitter","type":"address","internalType":"address"}],"stateMutability":"view"},{"type":"function","name":"submitForm","inputs":[{"name":"_formId","type":"uint256","internalType":"uint256"},{"name":"_username","type":"string","internalType":"string"},{"name":"_email","type":"string","internalType":"string"},{"name":"_answers","type":"string[]","internalType":"string[]"}],"outputs":[],"stateMutability":"nonpayable"},{"type":"function","name":"totalForms","inputs":[],"outputs":[{"name":"","type":"uint256","internalType":"uint256"}],"stateMutability":"view"},{"type":"function","name":"totalSubmissions","inputs":[],"outputs":[{"name":"","type":"uint256","internalType":"uint256"}],"stateMutability":"view"},{"type":"function","name":"updateFormDescription","inputs":[{"name":"_formId","type":"uint256","internalType":"uint256"},{"name":"_description","type":"string","internalType":"string"}],"outputs":[],"stateMutability":"nonpayable"},{"type":"function","name":"updateFormTitle","inputs":[{"name":"_formId","type":"uint256","internalType":"uint256"},{"name":"_title","type":"string","internalType":"string"}],"outputs":[],"stateMutability":"nonpayable"},{"type":"function","name":"userForms","inputs":[{"name":"","type":"address","internalType":"address"},{"name":"","type":"uint256","internalType":"uint256"}],"outputs":[{"name":"","type":"uint256","internalType":"uint256"}],"stateMutability":"view"},{"type":"event","name":"FormCreated","inputs":[{"name":"formId","type":"uint256","indexed":true,"internalType":"uint256"},{"name":"creator","type":"address","indexed":true,"internalType":"address"},{"name":"title","type":"string","indexed":false,"internalType":"string"},{"name":"questionsCount","type":"uint256","indexed":false,"internalType":"uint256"},{"name":"timestamp","type":"uint256","indexed":false,"internalType":"uint256"}],"anonymous":false},{"type":"event","name":"FormStatusChanged","inputs":[{"name":"formId","type":"uint256","indexed":true,"internalType":"uint256"},{"name":"active","type":"bool","indexed":false,"internalType":"bool"}],"anonymous":false},{"type":"event","name":"FormSubmitted","inputs":[{"name":"formId","type":"uint256","indexed":true,"internalType":"uint256"},{"name":"user","type":"address","indexed":true,"internalType":"address"},{"name":"email","type":"string","indexed":false,"internalType":"string"},{"name":"username","type":"string","indexed":false,"internalType":"string"},{"name":"timestamp","type":"uint256","indexed":false,"internalType":"uint256"}],"anonymous":false}],"bytecode":{"object":"0x6080604052348015600e575f5ffd5b50614ea18061001c5f395ff3fe608060405234801561000f575f5ffd5b50600436106101c2575f3560e01c80638c140ba2116100f7578063b72fab0511610095578063c86b2cc81161006f578063c86b2cc8146105c2578063cb2f8708146105de578063cf68f0151461060e578063e4806e191461062a576101c2565b8063b72fab0514610557578063c59d484714610573578063c770b2ab14610592576101c2565b8063a57d3806116100d1578063a57d380614610497578063ad0fcdf9146104c7578063b3b26ae2146104f7578063b49a872914610527576101c2565b80638c140ba2146104285780638f207f0814610449578063a395401614610479576101c2565b80634fdb50da116101645780635711374e1161013e5780635711374e1461037c57806371abbf6b146103ac5780637eb63256146103dc578063808a35b81461040c576101c2565b80634fdb50da146103145780635509745e1461033057806355f0e2211461034c576101c2565b80633551c315116101a05780633551c3151461025f578063453e11761461027d578063479fa2c3146102ad5780634e43603a146102e3576101c2565b806305ac647e146101c65780630e4dbf5c146101f657806318c864e31461022a575b5f5ffd5b6101e060048036038101906101db919061301f565b61065a565b6040516101ed919061310c565b60405180910390f35b610210600480360381019061020b9190613186565b61078c565b604051610221959493929190613252565b60405180910390f35b610244600480360381019061023f919061301f565b6108f4565b604051610256969594939291906132c0565b60405180910390f35b610267610a62565b604051610274919061332d565b60405180910390f35b61029760048036038101906102929190613472565b610a68565b6040516102a491906134cc565b60405180910390f35b6102c760048036038101906102c2919061301f565b610aaa565b6040516102da97969594939291906134e5565b60405180910390f35b6102fd60048036038101906102f89190613560565b610c87565b60405161030b92919061358b565b60405180910390f35b61032e600480360381019061032991906135dc565b610d5f565b005b61034a60048036038101906103459190613640565b610e1d565b005b61036660048036038101906103619190613186565b610f6b565b6040516103739190613833565b60405180910390f35b6103966004803603810190610391919061301f565b611274565b6040516103a391906138fb565b60405180910390f35b6103c660048036038101906103c1919061391b565b611356565b6040516103d391906134cc565b60405180910390f35b6103f660048036038101906103f1919061391b565b61138b565b60405161040391906134cc565b60405180910390f35b610426600480360381019061042191906139c8565b611443565b005b610430611553565b6040516104409493929190613b50565b60405180910390f35b610463600480360381019061045e919061301f565b611864565b6040516104709190613cfe565b60405180910390f35b610481611d4d565b60405161048e919061332d565b60405180910390f35b6104b160048036038101906104ac9190613186565b611d53565b6040516104be91906134cc565b60405180910390f35b6104e160048036038101906104dc9190613560565b611df4565b6040516104ee9190613d1e565b60405180910390f35b610511600480360381019061050c9190613d3e565b611e87565b60405161051e9190613d7c565b60405180910390f35b610541600480360381019061053c9190613186565b611ecf565b60405161054e91906134cc565b60405180910390f35b610571600480360381019061056c9190613e3f565b61200a565b005b61057b612477565b60405161058992919061358b565b60405180910390f35b6105ac60048036038101906105a7919061301f565b612487565b6040516105b9919061405e565b60405180910390f35b6105dc60048036038101906105d7919061407e565b612600565b005b6105f860048036038101906105f39190613186565b612c91565b60405161060591906134cc565b60405180910390f35b610628600480360381019061062391906139c8565b612d41565b005b610644600480360381019061063f9190614142565b612e95565b604051610651919061332d565b60405180910390f35b60608160065481106106a1576040517f08c379a0000000000000000000000000000000000000000000000000000000008152600401610698906141ca565b60405180910390fd5b5f5f5f8581526020019081526020015f2090505f816002018054905067ffffffffffffffff8111156106d6576106d561334e565b5b6040519080825280602002602001820160405280156107045781602001602082028036833780820191505090505b5090505f5f90505b826002018054905081101561078057826002018181548110610731576107306141e8565b5b905f5260205f20906002020160010160019054906101000a900460ff16828281518110610761576107606141e8565b5b602002602001019015159081151581525050808060010191505061070c565b50809350505050919050565b6001602052815f5260405f20602052805f5260405f205f9150915050805f0154908060010180546107bc90614242565b80601f01602080910402602001604051908101604052809291908181526020018280546107e890614242565b80156108335780601f1061080a57610100808354040283529160200191610833565b820191905f5260205f20905b81548152906001019060200180831161081657829003601f168201915b50505050509080600201805461084890614242565b80601f016020809104026020016040519081016040528092919081815260200182805461087490614242565b80156108bf5780601f10610896576101008083540402835291602001916108bf565b820191905f5260205f20905b8154815290600101906020018083116108a257829003601f168201915b505050505090806004015490806005015f9054906101000a900473ffffffffffffffffffffffffffffffffffffffff16905085565b5f602052805f5260405f205f91509050805f01805461091290614242565b80601f016020809104026020016040519081016040528092919081815260200182805461093e90614242565b80156109895780601f1061096057610100808354040283529160200191610989565b820191905f5260205f20905b81548152906001019060200180831161096c57829003601f168201915b50505050509080600101805461099e90614242565b80601f01602080910402602001604051908101604052809291908181526020018280546109ca90614242565b8015610a155780601f106109ec57610100808354040283529160200191610a15565b820191905f5260205f20905b8154815290600101906020018083116109f857829003601f168201915b505050505090806003015f9054906101000a900460ff1690806004015490806005015490806006015f9054906101000a900473ffffffffffffffffffffffffffffffffffffffff16905086565b60065481565b6002602052815f5260405f20818051602081018201805184825260208301602085012081835280955050505050505f915091509054906101000a900460ff1681565b6060805f5f5f5f5f876006548110610af7576040517f08c379a0000000000000000000000000000000000000000000000000000000008152600401610aee906141ca565b60405180910390fd5b5f5f5f8b81526020019081526020015f209050805f01816001018260020180549050836003015f9054906101000a900460ff1684600401548560050154866006015f9054906101000a900473ffffffffffffffffffffffffffffffffffffffff16868054610b6490614242565b80601f0160208091040260200160405190810160405280929190818152602001828054610b9090614242565b8015610bdb5780601f10610bb257610100808354040283529160200191610bdb565b820191905f5260205f20905b815481529060010190602001808311610bbe57829003601f168201915b50505050509650858054610bee90614242565b80601f0160208091040260200160405190810160405280929190818152602001828054610c1a90614242565b8015610c655780601f10610c3c57610100808354040283529160200191610c65565b820191905f5260205f20905b815481529060010190602001808311610c4857829003601f168201915b5050505050955098509850985098509850985098505050919395979092949650565b5f5f60045f8473ffffffffffffffffffffffffffffffffffffffff1673ffffffffffffffffffffffffffffffffffffffff1681526020019081526020015f208054905091505f5f90505f5f90505b600654811015610d52575f60015f8381526020019081526020015f205f8773ffffffffffffffffffffffffffffffffffffffff1673ffffffffffffffffffffffffffffffffffffffff1681526020019081526020015f20600401541115610d45578180610d419061429f565b9250505b8080600101915050610cd5565b5082819250925050915091565b836006548110610da4576040517f08c379a0000000000000000000000000000000000000000000000000000000008152600401610d9b906141ca565b60405180910390fd5b8160055f8781526020019081526020015f205f8673ffffffffffffffffffffffffffffffffffffffff1673ffffffffffffffffffffffffffffffffffffffff1681526020019081526020015f205f8581526020019081526020015f205f6101000a81548160ff0219169083151502179055505050505050565b816006548110610e62576040517f08c379a0000000000000000000000000000000000000000000000000000000008152600401610e59906141ca565b60405180910390fd5b823373ffffffffffffffffffffffffffffffffffffffff165f5f8381526020019081526020015f206006015f9054906101000a900473ffffffffffffffffffffffffffffffffffffffff1673ffffffffffffffffffffffffffffffffffffffff1614610f03576040517f08c379a0000000000000000000000000000000000000000000000000000000008152600401610efa90614356565b60405180910390fd5b825f5f8681526020019081526020015f206003015f6101000a81548160ff021916908315150217905550837f7ac6617bfe956f26ac3773450ab6cd0ee4bf24eac9ea8fd7082e0a4ea1cc747584604051610f5d91906134cc565b60405180910390a250505050565b610f73612ec0565b826006548110610fb8576040517f08c379a0000000000000000000000000000000000000000000000000000000008152600401610faf906141ca565b60405180910390fd5b60015f8581526020019081526020015f205f8473ffffffffffffffffffffffffffffffffffffffff1673ffffffffffffffffffffffffffffffffffffffff1681526020019081526020015f206040518060c00160405290815f820154815260200160018201805461102890614242565b80601f016020809104026020016040519081016040528092919081815260200182805461105490614242565b801561109f5780601f106110765761010080835404028352916020019161109f565b820191905f5260205f20905b81548152906001019060200180831161108257829003601f168201915b505050505081526020016002820180546110b890614242565b80601f01602080910402602001604051908101604052809291908181526020018280546110e490614242565b801561112f5780601f106111065761010080835404028352916020019161112f565b820191905f5260205f20905b81548152906001019060200180831161111257829003601f168201915b5050505050815260200160038201805480602002602001604051908101604052809291908181526020015f905b82821015611204578382905f5260205f2001805461117990614242565b80601f01602080910402602001604051908101604052809291908181526020018280546111a590614242565b80156111f05780601f106111c7576101008083540402835291602001916111f0565b820191905f5260205f20905b8154815290600101906020018083116111d357829003601f168201915b50505050508152602001906001019061115c565b50505050815260200160048201548152602001600582015f9054906101000a900473ffffffffffffffffffffffffffffffffffffffff1673ffffffffffffffffffffffffffffffffffffffff1673ffffffffffffffffffffffffffffffffffffffff168152505091505092915050565b60608160065481106112bb576040517f08c379a00000000000000000000000000000000000000000000000000000000081526004016112b2906141ca565b60405180910390fd5b60035f8481526020019081526020015f2080548060200260200160405190810160405280929190818152602001828054801561134957602002820191905f5260205f20905b815f9054906101000a900473ffffffffffffffffffffffffffffffffffffffff1673ffffffffffffffffffffffffffffffffffffffff1681526020019060010190808311611300575b5050505050915050919050565b6005602052825f5260405f20602052815f5260405f20602052805f5260405f205f92509250509054906101000a900460ff1681565b5f8360065481106113d1576040517f08c379a00000000000000000000000000000000000000000000000000000000081526004016113c8906141ca565b60405180910390fd5b60055f8681526020019081526020015f205f8573ffffffffffffffffffffffffffffffffffffffff1673ffffffffffffffffffffffffffffffffffffffff1681526020019081526020015f205f8481526020019081526020015f205f9054906101000a900460ff169150509392505050565b826006548110611488576040517f08c379a000000000000000000000000000000000000000000000000000000000815260040161147f906141ca565b60405180910390fd5b833373ffffffffffffffffffffffffffffffffffffffff165f5f8381526020019081526020015f206006015f9054906101000a900473ffffffffffffffffffffffffffffffffffffffff1673ffffffffffffffffffffffffffffffffffffffff1614611529576040517f08c379a000000000000000000000000000000000000000000000000000000000815260040161152090614356565b60405180910390fd5b83835f5f8881526020019081526020015f20600101918261154b92919061451e565b505050505050565b60608060608060065467ffffffffffffffff8111156115755761157461334e565b5b6040519080825280602002602001820160405280156115a857816020015b60608152602001906001900390816115935790505b50935060065467ffffffffffffffff8111156115c7576115c661334e565b5b6040519080825280602002602001820160405280156115f55781602001602082028036833780820191505090505b50925060065467ffffffffffffffff8111156116145761161361334e565b5b6040519080825280602002602001820160405280156116425781602001602082028036833780820191505090505b50915060065467ffffffffffffffff8111156116615761166061334e565b5b60405190808252806020026020018201604052801561168f5781602001602082028036833780820191505090505b5090505f5f90505b60065481101561185d575f5f8281526020019081526020015f205f0180546116be90614242565b80601f01602080910402602001604051908101604052809291908181526020018280546116ea90614242565b80156117355780601f1061170c57610100808354040283529160200191611735565b820191905f5260205f20905b81548152906001019060200180831161171857829003601f168201915b505050505085828151811061174d5761174c6141e8565b5b60200260200101819052505f5f8281526020019081526020015f206003015f9054906101000a900460ff1684828151811061178b5761178a6141e8565b5b6020026020010190151590811515815250505f5f8281526020019081526020015f20600401548382815181106117c4576117c36141e8565b5b6020026020010181815250505f5f8281526020019081526020015f206006015f9054906101000a900473ffffffffffffffffffffffffffffffffffffffff16828281518110611816576118156141e8565b5b602002602001019073ffffffffffffffffffffffffffffffffffffffff16908173ffffffffffffffffffffffffffffffffffffffff16815250508080600101915050611697565b5090919293565b60608160065481106118ab576040517f08c379a00000000000000000000000000000000000000000000000000000000081526004016118a2906141ca565b60405180910390fd5b823373ffffffffffffffffffffffffffffffffffffffff165f5f8381526020019081526020015f206006015f9054906101000a900473ffffffffffffffffffffffffffffffffffffffff1673ffffffffffffffffffffffffffffffffffffffff161461194c576040517f08c379a000000000000000000000000000000000000000000000000000000000815260040161194390614356565b60405180910390fd5b5f60035f8681526020019081526020015f208054806020026020016040519081016040528092919081815260200182805480156119db57602002820191905f5260205f20905b815f9054906101000a900473ffffffffffffffffffffffffffffffffffffffff1673ffffffffffffffffffffffffffffffffffffffff1681526020019060010190808311611992575b505050505090505f815167ffffffffffffffff8111156119fe576119fd61334e565b5b604051908082528060200260200182016040528015611a3757816020015b611a24612ec0565b815260200190600190039081611a1c5790505b5090505f5f90505b8251811015611d405760015f8881526020019081526020015f205f848381518110611a6d57611a6c6141e8565b5b602002602001015173ffffffffffffffffffffffffffffffffffffffff1673ffffffffffffffffffffffffffffffffffffffff1681526020019081526020015f206040518060c00160405290815f8201548152602001600182018054611ad290614242565b80601f0160208091040260200160405190810160405280929190818152602001828054611afe90614242565b8015611b495780601f10611b2057610100808354040283529160200191611b49565b820191905f5260205f20905b815481529060010190602001808311611b2c57829003601f168201915b50505050508152602001600282018054611b6290614242565b80601f0160208091040260200160405190810160405280929190818152602001828054611b8e90614242565b8015611bd95780601f10611bb057610100808354040283529160200191611bd9565b820191905f5260205f20905b815481529060010190602001808311611bbc57829003601f168201915b5050505050815260200160038201805480602002602001604051908101604052809291908181526020015f905b82821015611cae578382905f5260205f20018054611c2390614242565b80601f0160208091040260200160405190810160405280929190818152602001828054611c4f90614242565b8015611c9a5780601f10611c7157610100808354040283529160200191611c9a565b820191905f5260205f20905b815481529060010190602001808311611c7d57829003601f168201915b505050505081526020019060010190611c06565b50505050815260200160048201548152602001600582015f9054906101000a900473ffffffffffffffffffffffffffffffffffffffff1673ffffffffffffffffffffffffffffffffffffffff1673ffffffffffffffffffffffffffffffffffffffff1681525050828281518110611d2857611d276141e8565b5b60200260200101819052508080600101915050611a3f565b5080945050505050919050565b60075481565b5f826006548110611d99576040517f08c379a0000000000000000000000000000000000000000000000000000000008152600401611d90906141ca565b60405180910390fd5b5f60015f8681526020019081526020015f205f8573ffffffffffffffffffffffffffffffffffffffff1673ffffffffffffffffffffffffffffffffffffffff1681526020019081526020015f20600401541191505092915050565b606060045f8373ffffffffffffffffffffffffffffffffffffffff1673ffffffffffffffffffffffffffffffffffffffff1681526020019081526020015f20805480602002602001604051908101604052809291908181526020018280548015611e7b57602002820191905f5260205f20905b815481526020019060010190808311611e67575b50505050509050919050565b6003602052815f5260405f208181548110611ea0575f80fd5b905f5260205f20015f915091509054906101000a900473ffffffffffffffffffffffffffffffffffffffff1681565b5f826006548110611f15576040517f08c379a0000000000000000000000000000000000000000000000000000000008152600401611f0c906141ca565b60405180910390fd5b5f5f5f8681526020019081526020015f2090505f5f90505b8160020180549050811015611ffc57816002018181548110611f5257611f516141e8565b5b905f5260205f20906002020160010160019054906101000a900460ff168015611fe0575060055f8781526020019081526020015f205f8673ffffffffffffffffffffffffffffffffffffffff1673ffffffffffffffffffffffffffffffffffffffff1681526020019081526020015f205f8281526020019081526020015f205f9054906101000a900460ff16155b15611fef575f93505050612003565b8080600101915050611f2d565b5060019250505b5092915050565b5f8a8a90501161204f576040517f08c379a000000000000000000000000000000000000000000000000000000000815260040161204690614635565b60405180910390fd5b5f8686905011612094576040517f08c379a000000000000000000000000000000000000000000000000000000000815260040161208b906146c3565b60405180910390fd5b8383905086869050146120dc576040517f08c379a00000000000000000000000000000000000000000000000000000000081526004016120d390614751565b60405180910390fd5b818190508686905014612124576040517f08c379a000000000000000000000000000000000000000000000000000000000815260040161211b906147df565b60405180910390fd5b5f60065490508a8a5f5f8481526020019081526020015f205f01918261214b92919061451e565b5088885f5f8481526020019081526020015f20600101918261216e92919061451e565b5060015f5f8381526020019081526020015f206003015f6101000a81548160ff0219169083151502179055505f5f5f8381526020019081526020015f2060040181905550425f5f8381526020019081526020015f2060050181905550335f5f8381526020019081526020015f206006015f6101000a81548173ffffffffffffffffffffffffffffffffffffffff021916908373ffffffffffffffffffffffffffffffffffffffff1602179055505f5f90505b87879050811015612399575f5f8381526020019081526020015f2060020160405180606001604052808a8a8581811061225c5761225b6141e8565b5b905060200281019061226e9190614809565b8080601f0160208091040260200160405190810160405280939291908181526020018383808284375f81840152601f19601f8201169050808301925050505050505081526020018888858181106122c8576122c76141e8565b5b90506020020160208101906122dd919061486b565b151581526020018686858181106122f7576122f66141e8565b5b905060200201602081019061230c919061486b565b1515815250908060018154018082558091505060019003905f5260205f2090600202015f909190919091505f820151815f01908161234a9190614896565b506020820151816001015f6101000a81548160ff02191690831515021790555060408201518160010160016101000a81548160ff02191690831515021790555050508080600101915050612220565b5060045f3373ffffffffffffffffffffffffffffffffffffffff1673ffffffffffffffffffffffffffffffffffffffff1681526020019081526020015f2081908060018154018082558091505060019003905f5260205f20015f909190919091505560065f81548092919061240d9061429f565b91905055503373ffffffffffffffffffffffffffffffffffffffff16817f661055a30609f061d3ecaab4ec5206562172193fde848f897eaa92bb56db7e2c8d8d8b8b9050426040516124629493929190614991565b60405180910390a35050505050505050505050565b5f5f600654600754915091509091565b60608160065481106124ce576040517f08c379a00000000000000000000000000000000000000000000000000000000081526004016124c5906141ca565b60405180910390fd5b5f5f8481526020019081526020015f20600201805480602002602001604051908101604052809291908181526020015f905b828210156125f4578382905f5260205f2090600202016040518060600160405290815f8201805461253090614242565b80601f016020809104026020016040519081016040528092919081815260200182805461255c90614242565b80156125a75780601f1061257e576101008083540402835291602001916125a7565b820191905f5260205f20905b81548152906001019060200180831161258a57829003601f168201915b50505050508152602001600182015f9054906101000a900460ff161515151581526020016001820160019054906101000a900460ff16151515158152505081526020019060010190612500565b50505050915050919050565b866006548110612645576040517f08c379a000000000000000000000000000000000000000000000000000000000815260040161263c906141ca565b60405180910390fd5b5f5f8981526020019081526020015f206003015f9054906101000a900460ff166126a4576040517f08c379a000000000000000000000000000000000000000000000000000000000815260040161269b90614a19565b60405180910390fd5b5f87879050116126e9576040517f08c379a00000000000000000000000000000000000000000000000000000000081526004016126e090614a81565b60405180910390fd5b5f858590501161272e576040517f08c379a000000000000000000000000000000000000000000000000000000000815260040161272590614ae9565b60405180910390fd5b60025f8981526020019081526020015f20858560405161274f929190614b35565b90815260200160405180910390205f9054906101000a900460ff16156127aa576040517f08c379a00000000000000000000000000000000000000000000000000000000081526004016127a190614bbd565b60405180910390fd5b5f60015f8a81526020019081526020015f205f3373ffffffffffffffffffffffffffffffffffffffff1673ffffffffffffffffffffffffffffffffffffffff1681526020019081526020015f20600401541461283b576040517f08c379a000000000000000000000000000000000000000000000000000000000815260040161283290614c4b565b60405180910390fd5b5f5f8981526020019081526020015f20600201805490508383905014612896576040517f08c379a000000000000000000000000000000000000000000000000000000000815260040161288d90614cd9565b60405180910390fd5b5f5f90505b5f5f8a81526020019081526020015f2060020180549050811015612975575f5f8a81526020019081526020015f2060020181815481106128de576128dd6141e8565b5b905f5260205f2090600202016001015f9054906101000a900460ff1615612968575f848483818110612913576129126141e8565b5b90506020028101906129259190614809565b905011612967576040517f08c379a000000000000000000000000000000000000000000000000000000000815260040161295e90614d41565b60405180910390fd5b5b808060010191505061289b565b506040518060c0016040528089815260200188888080601f0160208091040260200160405190810160405280939291908181526020018383808284375f81840152601f19601f82011690508083019250505050505050815260200186868080601f0160208091040260200160405190810160405280939291908181526020018383808284375f81840152601f19601f820116905080830192505050505050508152602001848490612a269190614e10565b81526020014281526020013373ffffffffffffffffffffffffffffffffffffffff1681525060015f8a81526020019081526020015f205f3373ffffffffffffffffffffffffffffffffffffffff1673ffffffffffffffffffffffffffffffffffffffff1681526020019081526020015f205f820151815f01556020820151816001019081612ab49190614896565b506040820151816002019081612aca9190614896565b506060820151816003019080519060200190612ae7929190612f09565b506080820151816004015560a0820151816005015f6101000a81548173ffffffffffffffffffffffffffffffffffffffff021916908373ffffffffffffffffffffffffffffffffffffffff160217905550905050600160025f8a81526020019081526020015f208686604051612b5e929190614b35565b90815260200160405180910390205f6101000a81548160ff02191690831515021790555060035f8981526020019081526020015f2033908060018154018082558091505060019003905f5260205f20015f9091909190916101000a81548173ffffffffffffffffffffffffffffffffffffffff021916908373ffffffffffffffffffffffffffffffffffffffff1602179055505f5f8981526020019081526020015f206004015f815480929190612c149061429f565b919050555060075f815480929190612c2b9061429f565b91905055503373ffffffffffffffffffffffffffffffffffffffff16887f5ed33d17f508eab7440e929d15fda3db2221f6d15ceaa716b92b29a48fa051c187878b8b42604051612c7f959493929190614e24565b60405180910390a35050505050505050565b5f826006548110612cd7576040517f08c379a0000000000000000000000000000000000000000000000000000000008152600401612cce906141ca565b60405180910390fd5b8273ffffffffffffffffffffffffffffffffffffffff165f5f8681526020019081526020015f206006015f9054906101000a900473ffffffffffffffffffffffffffffffffffffffff1673ffffffffffffffffffffffffffffffffffffffff161491505092915050565b826006548110612d86576040517f08c379a0000000000000000000000000000000000000000000000000000000008152600401612d7d906141ca565b60405180910390fd5b833373ffffffffffffffffffffffffffffffffffffffff165f5f8381526020019081526020015f206006015f9054906101000a900473ffffffffffffffffffffffffffffffffffffffff1673ffffffffffffffffffffffffffffffffffffffff1614612e27576040517f08c379a0000000000000000000000000000000000000000000000000000000008152600401612e1e90614356565b60405180910390fd5b5f8484905011612e6c576040517f08c379a0000000000000000000000000000000000000000000000000000000008152600401612e6390614635565b60405180910390fd5b83835f5f8881526020019081526020015f205f019182612e8d92919061451e565b505050505050565b6004602052815f5260405f208181548110612eae575f80fd5b905f5260205f20015f91509150505481565b6040518060c001604052805f81526020016060815260200160608152602001606081526020015f81526020015f73ffffffffffffffffffffffffffffffffffffffff1681525090565b828054828255905f5260205f20908101928215612f4f579160200282015b82811115612f4e578251829081612f3e9190614896565b5091602001919060010190612f27565b5b509050612f5c9190612f60565b5090565b5b80821115612f7f575f8181612f769190612f83565b50600101612f61565b5090565b508054612f8f90614242565b5f825580601f10612fa05750612fbd565b601f0160209004905f5260205f2090810190612fbc9190612fc0565b5b50565b5b80821115612fd7575f815f905550600101612fc1565b5090565b5f604051905090565b5f5ffd5b5f5ffd5b5f819050919050565b612ffe81612fec565b8114613008575f5ffd5b50565b5f8135905061301981612ff5565b92915050565b5f6020828403121561303457613033612fe4565b5b5f6130418482850161300b565b91505092915050565b5f81519050919050565b5f82825260208201905092915050565b5f819050602082019050919050565b5f8115159050919050565b61308781613073565b82525050565b5f613098838361307e565b60208301905092915050565b5f602082019050919050565b5f6130ba8261304a565b6130c48185613054565b93506130cf83613064565b805f5b838110156130ff5781516130e6888261308d565b97506130f1836130a4565b9250506001810190506130d2565b5085935050505092915050565b5f6020820190508181035f83015261312481846130b0565b905092915050565b5f73ffffffffffffffffffffffffffffffffffffffff82169050919050565b5f6131558261312c565b9050919050565b6131658161314b565b811461316f575f5ffd5b50565b5f813590506131808161315c565b92915050565b5f5f6040838503121561319c5761319b612fe4565b5b5f6131a98582860161300b565b92505060206131ba85828601613172565b9150509250929050565b6131cd81612fec565b82525050565b5f81519050919050565b5f82825260208201905092915050565b8281835e5f83830152505050565b5f601f19601f8301169050919050565b5f613215826131d3565b61321f81856131dd565b935061322f8185602086016131ed565b613238816131fb565b840191505092915050565b61324c8161314b565b82525050565b5f60a0820190506132655f8301886131c4565b8181036020830152613277818761320b565b9050818103604083015261328b818661320b565b905061329a60608301856131c4565b6132a76080830184613243565b9695505050505050565b6132ba81613073565b82525050565b5f60c0820190508181035f8301526132d8818961320b565b905081810360208301526132ec818861320b565b90506132fb60408301876132b1565b61330860608301866131c4565b61331560808301856131c4565b61332260a0830184613243565b979650505050505050565b5f6020820190506133405f8301846131c4565b92915050565b5f5ffd5b5f5ffd5b7f4e487b71000000000000000000000000000000000000000000000000000000005f52604160045260245ffd5b613384826131fb565b810181811067ffffffffffffffff821117156133a3576133a261334e565b5b80604052505050565b5f6133b5612fdb565b90506133c1828261337b565b919050565b5f67ffffffffffffffff8211156133e0576133df61334e565b5b6133e9826131fb565b9050602081019050919050565b828183375f83830152505050565b5f613416613411846133c6565b6133ac565b9050828152602081018484840111156134325761343161334a565b5b61343d8482856133f6565b509392505050565b5f82601f83011261345957613458613346565b5b8135613469848260208601613404565b91505092915050565b5f5f6040838503121561348857613487612fe4565b5b5f6134958582860161300b565b925050602083013567ffffffffffffffff8111156134b6576134b5612fe8565b5b6134c285828601613445565b9150509250929050565b5f6020820190506134df5f8301846132b1565b92915050565b5f60e0820190508181035f8301526134fd818a61320b565b90508181036020830152613511818961320b565b905061352060408301886131c4565b61352d60608301876132b1565b61353a60808301866131c4565b61354760a08301856131c4565b61355460c0830184613243565b98975050505050505050565b5f6020828403121561357557613574612fe4565b5b5f61358284828501613172565b91505092915050565b5f60408201905061359e5f8301856131c4565b6135ab60208301846131c4565b9392505050565b6135bb81613073565b81146135c5575f5ffd5b50565b5f813590506135d6816135b2565b92915050565b5f5f5f5f608085870312156135f4576135f3612fe4565b5b5f6136018782880161300b565b945050602061361287828801613172565b93505060406136238782880161300b565b9250506060613634878288016135c8565b91505092959194509250565b5f5f6040838503121561365657613655612fe4565b5b5f6136638582860161300b565b9250506020613674858286016135c8565b9150509250929050565b61368781612fec565b82525050565b5f82825260208201905092915050565b5f6136a7826131d3565b6136b1818561368d565b93506136c18185602086016131ed565b6136ca816131fb565b840191505092915050565b5f81519050919050565b5f82825260208201905092915050565b5f819050602082019050919050565b5f613709838361369d565b905092915050565b5f602082019050919050565b5f613727826136d5565b61373181856136df565b935083602082028501613743856136ef565b805f5b8581101561377e578484038952815161375f85826136fe565b945061376a83613711565b925060208a01995050600181019050613746565b50829750879550505050505092915050565b6137998161314b565b82525050565b5f60c083015f8301516137b45f86018261367e565b50602083015184820360208601526137cc828261369d565b915050604083015184820360408601526137e6828261369d565b91505060608301518482036060860152613800828261371d565b9150506080830151613815608086018261367e565b5060a083015161382860a0860182613790565b508091505092915050565b5f6020820190508181035f83015261384b818461379f565b905092915050565b5f81519050919050565b5f82825260208201905092915050565b5f819050602082019050919050565b5f6138878383613790565b60208301905092915050565b5f602082019050919050565b5f6138a982613853565b6138b3818561385d565b93506138be8361386d565b805f5b838110156138ee5781516138d5888261387c565b97506138e083613893565b9250506001810190506138c1565b5085935050505092915050565b5f6020820190508181035f830152613913818461389f565b905092915050565b5f5f5f6060848603121561393257613931612fe4565b5b5f61393f8682870161300b565b935050602061395086828701613172565b92505060406139618682870161300b565b9150509250925092565b5f5ffd5b5f5ffd5b5f5f83601f84011261398857613987613346565b5b8235905067ffffffffffffffff8111156139a5576139a461396b565b5b6020830191508360018202830111156139c1576139c061396f565b5b9250929050565b5f5f5f604084860312156139df576139de612fe4565b5b5f6139ec8682870161300b565b935050602084013567ffffffffffffffff811115613a0d57613a0c612fe8565b5b613a1986828701613973565b92509250509250925092565b5f82825260208201905092915050565b5f613a3f826136d5565b613a498185613a25565b935083602082028501613a5b856136ef565b805f5b85811015613a965784840389528151613a7785826136fe565b9450613a8283613711565b925060208a01995050600181019050613a5e565b50829750879550505050505092915050565b5f81519050919050565b5f82825260208201905092915050565b5f819050602082019050919050565b5f613adc838361367e565b60208301905092915050565b5f602082019050919050565b5f613afe82613aa8565b613b088185613ab2565b9350613b1383613ac2565b805f5b83811015613b43578151613b2a8882613ad1565b9750613b3583613ae8565b925050600181019050613b16565b5085935050505092915050565b5f6080820190508181035f830152613b688187613a35565b90508181036020830152613b7c81866130b0565b90508181036040830152613b908185613af4565b90508181036060830152613ba4818461389f565b905095945050505050565b5f81519050919050565b5f82825260208201905092915050565b5f819050602082019050919050565b5f60c083015f830151613bed5f86018261367e565b5060208301518482036020860152613c05828261369d565b91505060408301518482036040860152613c1f828261369d565b91505060608301518482036060860152613c39828261371d565b9150506080830151613c4e608086018261367e565b5060a0830151613c6160a0860182613790565b508091505092915050565b5f613c778383613bd8565b905092915050565b5f602082019050919050565b5f613c9582613baf565b613c9f8185613bb9565b935083602082028501613cb185613bc9565b805f5b85811015613cec5784840389528151613ccd8582613c6c565b9450613cd883613c7f565b925060208a01995050600181019050613cb4565b50829750879550505050505092915050565b5f6020820190508181035f830152613d168184613c8b565b905092915050565b5f6020820190508181035f830152613d368184613af4565b905092915050565b5f5f60408385031215613d5457613d53612fe4565b5b5f613d618582860161300b565b9250506020613d728582860161300b565b9150509250929050565b5f602082019050613d8f5f830184613243565b92915050565b5f5f83601f840112613daa57613da9613346565b5b8235905067ffffffffffffffff811115613dc757613dc661396b565b5b602083019150836020820283011115613de357613de261396f565b5b9250929050565b5f5f83601f840112613dff57613dfe613346565b5b8235905067ffffffffffffffff811115613e1c57613e1b61396b565b5b602083019150836020820283011115613e3857613e3761396f565b5b9250929050565b5f5f5f5f5f5f5f5f5f5f60a08b8d031215613e5d57613e5c612fe4565b5b5f8b013567ffffffffffffffff811115613e7a57613e79612fe8565b5b613e868d828e01613973565b9a509a505060208b013567ffffffffffffffff811115613ea957613ea8612fe8565b5b613eb58d828e01613973565b985098505060408b013567ffffffffffffffff811115613ed857613ed7612fe8565b5b613ee48d828e01613d95565b965096505060608b013567ffffffffffffffff811115613f0757613f06612fe8565b5b613f138d828e01613dea565b945094505060808b013567ffffffffffffffff811115613f3657613f35612fe8565b5b613f428d828e01613dea565b92509250509295989b9194979a5092959850565b5f81519050919050565b5f82825260208201905092915050565b5f819050602082019050919050565b5f606083015f8301518482035f860152613f99828261369d565b9150506020830151613fae602086018261307e565b506040830151613fc1604086018261307e565b508091505092915050565b5f613fd78383613f7f565b905092915050565b5f602082019050919050565b5f613ff582613f56565b613fff8185613f60565b93508360208202850161401185613f70565b805f5b8581101561404c578484038952815161402d8582613fcc565b945061403883613fdf565b925060208a01995050600181019050614014565b50829750879550505050505092915050565b5f6020820190508181035f8301526140768184613feb565b905092915050565b5f5f5f5f5f5f5f6080888a03121561409957614098612fe4565b5b5f6140a68a828b0161300b565b975050602088013567ffffffffffffffff8111156140c7576140c6612fe8565b5b6140d38a828b01613973565b9650965050604088013567ffffffffffffffff8111156140f6576140f5612fe8565b5b6141028a828b01613973565b9450945050606088013567ffffffffffffffff81111561412557614124612fe8565b5b6141318a828b01613d95565b925092505092959891949750929550565b5f5f6040838503121561415857614157612fe4565b5b5f61416585828601613172565b92505060206141768582860161300b565b9150509250929050565b7f466f726d20646f6573206e6f74206578697374000000000000000000000000005f82015250565b5f6141b46013836131dd565b91506141bf82614180565b602082019050919050565b5f6020820190508181035f8301526141e1816141a8565b9050919050565b7f4e487b71000000000000000000000000000000000000000000000000000000005f52603260045260245ffd5b7f4e487b71000000000000000000000000000000000000000000000000000000005f52602260045260245ffd5b5f600282049050600182168061425957607f821691505b60208210810361426c5761426b614215565b5b50919050565b7f4e487b71000000000000000000000000000000000000000000000000000000005f52601160045260245ffd5b5f6142a982612fec565b91507fffffffffffffffffffffffffffffffffffffffffffffffffffffffffffffffff82036142db576142da614272565b5b600182019050919050565b7f4f6e6c7920666f726d2063726561746f722063616e20706572666f726d2074685f8201527f697320616374696f6e0000000000000000000000000000000000000000000000602082015250565b5f6143406029836131dd565b915061434b826142e6565b604082019050919050565b5f6020820190508181035f83015261436d81614334565b9050919050565b5f82905092915050565b5f819050815f5260205f209050919050565b5f6020601f8301049050919050565b5f82821b905092915050565b5f600883026143da7fffffffffffffffffffffffffffffffffffffffffffffffffffffffffffffffff8261439f565b6143e4868361439f565b95508019841693508086168417925050509392505050565b5f819050919050565b5f61441f61441a61441584612fec565b6143fc565b612fec565b9050919050565b5f819050919050565b61443883614405565b61444c61444482614426565b8484546143ab565b825550505050565b5f5f905090565b614463614454565b61446e81848461442f565b505050565b5b81811015614491576144865f8261445b565b600181019050614474565b5050565b601f8211156144d6576144a78161437e565b6144b084614390565b810160208510156144bf578190505b6144d36144cb85614390565b830182614473565b50505b505050565b5f82821c905092915050565b5f6144f65f19846008026144db565b1980831691505092915050565b5f61450e83836144e7565b9150826002028217905092915050565b6145288383614374565b67ffffffffffffffff8111156145415761454061334e565b5b61454b8254614242565b614556828285614495565b5f601f831160018114614583575f8415614571578287013590505b61457b8582614503565b8655506145e2565b601f1984166145918661437e565b5f5b828110156145b857848901358255600182019150602085019450602081019050614593565b868310156145d557848901356145d1601f8916826144e7565b8355505b6001600288020188555050505b50505050505050565b7f5469746c652069732072657175697265640000000000000000000000000000005f82015250565b5f61461f6011836131dd565b915061462a826145eb565b602082019050919050565b5f6020820190508181035f83015261464c81614613565b9050919050565b7f4174206c65617374206f6e65207175657374696f6e20697320726571756972655f8201527f6400000000000000000000000000000000000000000000000000000000000000602082015250565b5f6146ad6021836131dd565b91506146b882614653565b604082019050919050565b5f6020820190508181035f8301526146da816146a1565b9050919050565b7f5175657374696f6e7320616e6420726571756972656420666c616773206d75735f8201527f7420686176652073616d65206c656e6774680000000000000000000000000000602082015250565b5f61473b6032836131dd565b9150614746826146e1565b604082019050919050565b5f6020820190508181035f8301526147688161472f565b9050919050565b7f5175657374696f6e7320616e642070726f6f6620666c616773206d75737420685f8201527f6176652073616d65206c656e6774680000000000000000000000000000000000602082015250565b5f6147c9602f836131dd565b91506147d48261476f565b604082019050919050565b5f6020820190508181035f8301526147f6816147bd565b9050919050565b5f5ffd5b5f5ffd5b5f5ffd5b5f5f83356001602003843603038112614825576148246147fd565b5b80840192508235915067ffffffffffffffff82111561484757614846614801565b5b60208301925060018202360383131561486357614862614805565b5b509250929050565b5f602082840312156148805761487f612fe4565b5b5f61488d848285016135c8565b91505092915050565b61489f826131d3565b67ffffffffffffffff8111156148b8576148b761334e565b5b6148c28254614242565b6148cd828285614495565b5f60209050601f8311600181146148fe575f84156148ec578287015190505b6148f68582614503565b86555061495d565b601f19841661490c8661437e565b5f5b828110156149335784890151825560018201915060208501945060208101905061490e565b86831015614950578489015161494c601f8916826144e7565b8355505b6001600288020188555050505b505050505050565b5f61497083856131dd565b935061497d8385846133f6565b614986836131fb565b840190509392505050565b5f6060820190508181035f8301526149aa818688614965565b90506149b960208301856131c4565b6149c660408301846131c4565b95945050505050565b7f466f726d206973206e6f742061637469766500000000000000000000000000005f82015250565b5f614a036012836131dd565b9150614a0e826149cf565b602082019050919050565b5f6020820190508181035f830152614a30816149f7565b9050919050565b7f557365726e616d652069732072657175697265640000000000000000000000005f82015250565b5f614a6b6014836131dd565b9150614a7682614a37565b602082019050919050565b5f6020820190508181035f830152614a9881614a5f565b9050919050565b7f456d61696c2069732072657175697265640000000000000000000000000000005f82015250565b5f614ad36011836131dd565b9150614ade82614a9f565b602082019050919050565b5f6020820190508181035f830152614b0081614ac7565b9050919050565b5f81905092915050565b5f614b1c8385614b07565b9350614b298385846133f6565b82840190509392505050565b5f614b41828486614b11565b91508190509392505050565b7f456d61696c20616c7265616479207265676973746572656420666f72207468695f8201527f7320666f726d0000000000000000000000000000000000000000000000000000602082015250565b5f614ba76026836131dd565b9150614bb282614b4d565b604082019050919050565b5f6020820190508181035f830152614bd481614b9b565b9050919050565b7f4164647265737320616c7265616479207375626d697474656420746f207468695f8201527f7320666f726d0000000000000000000000000000000000000000000000000000602082015250565b5f614c356026836131dd565b9150614c4082614bdb565b604082019050919050565b5f6020820190508181035f830152614c6281614c29565b9050919050565b7f416e7377657220636f756e74206d757374206d61746368207175657374696f6e5f8201527f20636f756e740000000000000000000000000000000000000000000000000000602082015250565b5f614cc36026836131dd565b9150614cce82614c69565b604082019050919050565b5f6020820190508181035f830152614cf081614cb7565b9050919050565b7f5265717569726564207175657374696f6e206e6f7420616e73776572656400005f82015250565b5f614d2b601e836131dd565b9150614d3682614cf7565b602082019050919050565b5f6020820190508181035f830152614d5881614d1f565b9050919050565b5f67ffffffffffffffff821115614d7957614d7861334e565b5b602082029050602081019050919050565b5f614d9c614d9784614d5f565b6133ac565b90508083825260208201905060208402830185811115614dbf57614dbe61396f565b5b835b81811015614e0657803567ffffffffffffffff811115614de457614de3613346565b5b808601614df18982613445565b85526020850194505050602081019050614dc1565b5050509392505050565b5f614e1c368484614d8a565b905092915050565b5f6060820190508181035f830152614e3d818789614965565b90508181036020830152614e52818587614965565b9050614e6160408301846131c4565b969550505050505056fea2646970667358221220b8267630ce5c5b7baa58a72aae280159f7b879001c0f6d6cd75fab05cc4c228f64736f6c634300081e0033","linkReferences":{}},"methodIdentifiers":{"areAllProofsVerified(uint256,address)":"b49a8729","createForm(string,string,string[],bool[],bool[])":"b72fab05","emailExists(uint256,string)":"453e1176","formSubmitters(uint256,uint256)":"b3b26ae2","forms(uint256)":"18c864e3","getAllFormSubmissions(uint256)":"8f207f08","getAllForms()":"8c140ba2","getForm(uint256)":"479fa2c3","getFormQuestions(uint256)":"c770b2ab","getFormSubmitters(uint256)":"5711374e","getProofRequirements(uint256)":"05ac647e","getStats()":"c59d4847","getSubmission(uint256,address)":"55f0e221","getUserForms(address)":"ad0fcdf9","getUserStats(address)":"4e43603a","hasSubmitted(uint256,address)":"a57d3806","isFormCreator(uint256,address)":"cb2f8708","isProofVerified(uint256,address,uint256)":"7eb63256","proofVerified(uint256,address,uint256)":"71abbf6b","setFormActive(uint256,bool)":"5509745e","setProofVerified(uint256,address,uint256,bool)":"4fdb50da","submissions(uint256,address)":"0e4dbf5c","submitForm(uint256,string,string,string[])":"c86b2cc8","totalForms()":"3551c315","totalSubmissions()":"a3954016","updateFormDescription(uint256,string)":"808a35b8","updateFormTitle(uint256,string)":"cf68f015","userForms(address,uint256)":"e4806e19"},"id":19}