{"abi":[{"type":"constructor","inputs":[],"stateMutability":"nonpayable"},{"type":"function","name":"createForm","inputs":[{"name":"_title","type":"string","internalType":"string"},{"name":"_description","type":"string","internalType":"string"},{"name":"_questions","type":"string[]","internalType":"string[]"},{"name":"_isRequired","type":"bool[]","internalType":"bool[]"}],"outputs":[],"stateMutability":"nonpayable"},{"type":"function","name":"emailExists","inputs":[{"name":"","type":"uint256","internalType":"uint256"},{"name":"","type":"string","internalType":"string"}],"outputs":[{"name":"","type":"bool","internalType":"bool"}],"stateMutability":"view"},{"type":"function","name":"formSubmitters","inputs":[{"name":"","type":"uint256","internalType":"uint256"},{"name":"","type":"uint256","internalType":"uint256"}],"outputs":[{"name":"","type":"address","internalType":"address"}],"stateMutability":"view"},{"type":"function","name":"forms","inputs":[{"name":"","type":"uint256","internalType":"uint256"}],"outputs":[{"name":"title","type":"string","internalType":"string"},{"name":"description","type":"string","internalType":"string"},{"name":"isActive","type":"bool","internalType":"bool"},{"name":"totalSubmissions","type":"uint256","internalType":"uint256"},{"name":"createdAt","type":"uint256","internalType":"uint256"}],"stateMutability":"view"},{"type":"function","name":"getAllFormSubmissions","inputs":[{"name":"_formId","type":"uint256","internalType":"uint256"}],"outputs":[{"name":"","type":"tuple[]","internalType":"struct SwagForm.Submission[]","components":[{"name":"formId","type":"uint256","internalType":"uint256"},{"name":"username","type":"string","internalType":"string"},{"name":"email","type":"string","internalType":"string"},{"name":"answers","type":"string[]","internalType":"string[]"},{"name":"timestamp","type":"uint256","internalType":"uint256"},{"name":"submitter","type":"address","internalType":"address"}]}],"stateMutability":"view"},{"type":"function","name":"getAllForms","inputs":[],"outputs":[{"name":"titles","type":"string[]","internalType":"string[]"},{"name":"activeStatus","type":"bool[]","internalType":"bool[]"},{"name":"submissionCounts","type":"uint256[]","internalType":"uint256[]"}],"stateMutability":"view"},{"type":"function","name":"getForm","inputs":[{"name":"_formId","type":"uint256","internalType":"uint256"}],"outputs":[{"name":"title","type":"string","internalType":"string"},{"name":"description","type":"string","internalType":"string"},{"name":"questionsCount","type":"uint256","internalType":"uint256"},{"name":"isActive","type":"bool","internalType":"bool"},{"name":"totalSubmissions","type":"uint256","internalType":"uint256"},{"name":"createdAt","type":"uint256","internalType":"uint256"}],"stateMutability":"view"},{"type":"function","name":"getFormQuestions","inputs":[{"name":"_formId","type":"uint256","internalType":"uint256"}],"outputs":[{"name":"","type":"tuple[]","internalType":"struct SwagForm.Question[]","components":[{"name":"questionText","type":"string","internalType":"string"},{"name":"isRequired","type":"bool","internalType":"bool"}]}],"stateMutability":"view"},{"type":"function","name":"getFormSubmitters","inputs":[{"name":"_formId","type":"uint256","internalType":"uint256"}],"outputs":[{"name":"","type":"address[]","internalType":"address[]"}],"stateMutability":"view"},{"type":"function","name":"getStats","inputs":[],"outputs":[{"name":"totalFormsCount","type":"uint256","internalType":"uint256"},{"name":"totalSubmissionsCount","type":"uint256","internalType":"uint256"}],"stateMutability":"view"},{"type":"function","name":"getSubmission","inputs":[{"name":"_formId","type":"uint256","internalType":"uint256"},{"name":"_user","type":"address","internalType":"address"}],"outputs":[{"name":"","type":"tuple","internalType":"struct SwagForm.Submission","components":[{"name":"formId","type":"uint256","internalType":"uint256"},{"name":"username","type":"string","internalType":"string"},{"name":"email","type":"string","internalType":"string"},{"name":"answers","type":"string[]","internalType":"string[]"},{"name":"timestamp","type":"uint256","internalType":"uint256"},{"name":"submitter","type":"address","internalType":"address"}]}],"stateMutability":"view"},{"type":"function","name":"hasSubmitted","inputs":[{"name":"_formId","type":"uint256","internalType":"uint256"},{"name":"_user","type":"address","internalType":"address"}],"outputs":[{"name":"","type":"bool","internalType":"bool"}],"stateMutability":"view"},{"type":"function","name":"owner","inputs":[],"outputs":[{"name":"","type":"address","internalType":"address"}],"stateMutability":"view"},{"type":"function","name":"setFormActive","inputs":[{"name":"_formId","type":"uint256","internalType":"uint256"},{"name":"_active","type":"bool","internalType":"bool"}],"outputs":[],"stateMutability":"nonpayable"},{"type":"function","name":"submissions","inputs":[{"name":"","type":"uint256","internalType":"uint256"},{"name":"","type":"address","internalType":"address"}],"outputs":[{"name":"formId","type":"uint256","internalType":"uint256"},{"name":"username","type":"string","internalType":"string"},{"name":"email","type":"string","internalType":"string"},{"name":"timestamp","type":"uint256","internalType":"uint256"},{"name":"submitter","type":"address","internalType":"address"}],"stateMutability":"view"},{"type":"function","name":"submitForm","inputs":[{"name":"_formId","type":"uint256","internalType":"uint256"},{"name":"_username","type":"string","internalType":"string"},{"name":"_email","type":"string","internalType":"string"},{"name":"_answers","type":"string[]","internalType":"string[]"}],"outputs":[],"stateMutability":"nonpayable"},{"type":"function","name":"totalForms","inputs":[],"outputs":[{"name":"","type":"uint256","internalType":"uint256"}],"stateMutability":"view"},{"type":"function","name":"totalSubmissions","inputs":[],"outputs":[{"name":"","type":"uint256","internalType":"uint256"}],"stateMutability":"view"},{"type":"function","name":"transferOwnership","inputs":[{"name":"newOwner","type":"address","internalType":"address"}],"outputs":[],"stateMutability":"nonpayable"},{"type":"function","name":"updateFormDescription","inputs":[{"name":"_formId","type":"uint256","internalType":"uint256"},{"name":"_description","type":"string","internalType":"string"}],"outputs":[],"stateMutability":"nonpayable"},{"type":"function","name":"updateFormTitle","inputs":[{"name":"_formId","type":"uint256","internalType":"uint256"},{"name":"_title","type":"string","internalType":"string"}],"outputs":[],"stateMutability":"nonpayable"},{"type":"event","name":"FormCreated","inputs":[{"name":"formId","type":"uint256","indexed":true,"internalType":"uint256"},{"name":"title","type":"string","indexed":false,"internalType":"string"},{"name":"questionsCount","type":"uint256","indexed":false,"internalType":"uint256"},{"name":"timestamp","type":"uint256","indexed":false,"internalType":"uint256"}],"anonymous":false},{"type":"event","name":"FormStatusChanged","inputs":[{"name":"formId","type":"uint256","indexed":true,"internalType":"uint256"},{"name":"active","type":"bool","indexed":false,"internalType":"bool"}],"anonymous":false},{"type":"event","name":"FormSubmitted","inputs":[{"name":"formId","type":"uint256","indexed":true,"internalType":"uint256"},{"name":"user","type":"address","indexed":true,"internalType":"address"},{"name":"email","type":"string","indexed":false,"internalType":"string"},{"name":"username","type":"string","indexed":false,"internalType":"string"},{"name":"timestamp","type":"uint256","indexed":false,"internalType":"uint256"}],"anonymous":false}],"bytecode":{"object":"0x6080604052348015600e575f5ffd5b503360065f6101000a81548173ffffffffffffffffffffffffffffffffffffffff021916908373ffffffffffffffffffffffffffffffffffffffff16021790555061438f8061005c5f395ff3fe608060405234801561000f575f5ffd5b5060043610610135575f3560e01c80638da5cb5b116100b6578063b3b26ae21161007a578063b3b26ae214610394578063c59d4847146103c4578063c770b2ab146103e3578063c86b2cc814610413578063cf68f0151461042f578063f2fde38b1461044b57610135565b80638da5cb5b146102dc5780638f207f08146102fa5780639eba72e81461032a578063a395401614610346578063a57d38061461036457610135565b80635509745e116100fd5780635509745e1461022457806355f0e221146102405780635711374e14610270578063808a35b8146102a05780638c140ba2146102bc57610135565b80630e4dbf5c1461013957806318c864e31461016d5780633551c315146101a1578063453e1176146101bf578063479fa2c3146101ef575b5f5ffd5b610153600480360381019061014e9190612736565b610467565b604051610164959493929190612802565b60405180910390f35b61018760048036038101906101829190612861565b6105cf565b6040516101989594939291906128a6565b60405180910390f35b6101a9610718565b6040516101b69190612905565b60405180910390f35b6101d960048036038101906101d49190612a4a565b61071e565b6040516101e69190612aa4565b60405180910390f35b61020960048036038101906102049190612861565b610760565b60405161021b96959493929190612abd565b60405180910390f35b61023e60048036038101906102399190612b54565b610914565b005b61025a60048036038101906102559190612736565b610a4f565b6040516102679190612d47565b60405180910390f35b61028a60048036038101906102859190612861565b610d58565b6040516102979190612e0f565b60405180910390f35b6102ba60048036038101906102b59190612e8c565b610e3a565b005b6102c4610f37565b6040516102d3939291906130cb565b60405180910390f35b6102e4611179565b6040516102f19190613115565b60405180910390f35b610314600480360381019061030f9190612861565b61119e565b604051610321919061327d565b60405180910390f35b610344600480360381019061033f9190613347565b611674565b005b61034e611a0e565b60405161035b9190612905565b60405180910390f35b61037e60048036038101906103799190612736565b611a14565b60405161038b9190612aa4565b60405180910390f35b6103ae60048036038101906103a9919061342b565b611ab5565b6040516103bb9190613115565b60405180910390f35b6103cc611afd565b6040516103da929190613469565b60405180910390f35b6103fd60048036038101906103f89190612861565b611b0d565b60405161040a9190613585565b60405180910390f35b61042d600480360381019061042891906135a5565b611c6b565b005b61044960048036038101906104449190612e8c565b6122fc565b005b61046560048036038101906104609190613669565b61243d565b005b6001602052815f5260405f20602052805f5260405f205f9150915050805f015490806001018054610497906136c1565b80601f01602080910402602001604051908101604052809291908181526020018280546104c3906136c1565b801561050e5780601f106104e55761010080835404028352916020019161050e565b820191905f5260205f20905b8154815290600101906020018083116104f157829003601f168201915b505050505090806002018054610523906136c1565b80601f016020809104026020016040519081016040528092919081815260200182805461054f906136c1565b801561059a5780601f106105715761010080835404028352916020019161059a565b820191905f5260205f20905b81548152906001019060200180831161057d57829003601f168201915b505050505090806004015490806005015f9054906101000a900473ffffffffffffffffffffffffffffffffffffffff16905085565b5f602052805f5260405f205f91509050805f0180546105ed906136c1565b80601f0160208091040260200160405190810160405280929190818152602001828054610619906136c1565b80156106645780601f1061063b57610100808354040283529160200191610664565b820191905f5260205f20905b81548152906001019060200180831161064757829003601f168201915b505050505090806001018054610679906136c1565b80601f01602080910402602001604051908101604052809291908181526020018280546106a5906136c1565b80156106f05780601f106106c7576101008083540402835291602001916106f0565b820191905f5260205f20905b8154815290600101906020018083116106d357829003601f168201915b505050505090806003015f9054906101000a900460ff16908060040154908060050154905085565b60045481565b6002602052815f5260405f20818051602081018201805184825260208301602085012081835280955050505050505f915091509054906101000a900460ff1681565b6060805f5f5f5f8660045481106107ac576040517f08c379a00000000000000000000000000000000000000000000000000000000081526004016107a39061373b565b60405180910390fd5b5f5f5f8a81526020019081526020015f209050805f01816001018260020180549050836003015f9054906101000a900460ff16846004015485600501548580546107f5906136c1565b80601f0160208091040260200160405190810160405280929190818152602001828054610821906136c1565b801561086c5780601f106108435761010080835404028352916020019161086c565b820191905f5260205f20905b81548152906001019060200180831161084f57829003601f168201915b5050505050955084805461087f906136c1565b80601f01602080910402602001604051908101604052809291908181526020018280546108ab906136c1565b80156108f65780601f106108cd576101008083540402835291602001916108f6565b820191905f5260205f20905b8154815290600101906020018083116108d957829003601f168201915b50505050509450975097509750975097509750505091939550919395565b60065f9054906101000a900473ffffffffffffffffffffffffffffffffffffffff1673ffffffffffffffffffffffffffffffffffffffff163373ffffffffffffffffffffffffffffffffffffffff16146109a3576040517f08c379a000000000000000000000000000000000000000000000000000000000815260040161099a906137c9565b60405180910390fd5b8160045481106109e8576040517f08c379a00000000000000000000000000000000000000000000000000000000081526004016109df9061373b565b60405180910390fd5b815f5f8581526020019081526020015f206003015f6101000a81548160ff021916908315150217905550827f7ac6617bfe956f26ac3773450ab6cd0ee4bf24eac9ea8fd7082e0a4ea1cc747583604051610a429190612aa4565b60405180910390a2505050565b610a5761257d565b826004548110610a9c576040517f08c379a0000000000000000000000000000000000000000000000000000000008152600401610a939061373b565b60405180910390fd5b60015f8581526020019081526020015f205f8473ffffffffffffffffffffffffffffffffffffffff1673ffffffffffffffffffffffffffffffffffffffff1681526020019081526020015f206040518060c00160405290815f8201548152602001600182018054610b0c906136c1565b80601f0160208091040260200160405190810160405280929190818152602001828054610b38906136c1565b8015610b835780601f10610b5a57610100808354040283529160200191610b83565b820191905f5260205f20905b815481529060010190602001808311610b6657829003601f168201915b50505050508152602001600282018054610b9c906136c1565b80601f0160208091040260200160405190810160405280929190818152602001828054610bc8906136c1565b8015610c135780601f10610bea57610100808354040283529160200191610c13565b820191905f5260205f20905b815481529060010190602001808311610bf657829003601f168201915b5050505050815260200160038201805480602002602001604051908101604052809291908181526020015f905b82821015610ce8578382905f5260205f20018054610c5d906136c1565b80601f0160208091040260200160405190810160405280929190818152602001828054610c89906136c1565b8015610cd45780601f10610cab57610100808354040283529160200191610cd4565b820191905f5260205f20905b815481529060010190602001808311610cb757829003601f168201915b505050505081526020019060010190610c40565b50505050815260200160048201548152602001600582015f9054906101000a900473ffffffffffffffffffffffffffffffffffffffff1673ffffffffffffffffffffffffffffffffffffffff1673ffffffffffffffffffffffffffffffffffffffff168152505091505092915050565b6060816004548110610d9f576040517f08c379a0000000000000000000000000000000000000000000000000000000008152600401610d969061373b565b60405180910390fd5b60035f8481526020019081526020015f20805480602002602001604051908101604052809291908181526020018280548015610e2d57602002820191905f5260205f20905b815f9054906101000a900473ffffffffffffffffffffffffffffffffffffffff1673ffffffffffffffffffffffffffffffffffffffff1681526020019060010190808311610de4575b5050505050915050919050565b60065f9054906101000a900473ffffffffffffffffffffffffffffffffffffffff1673ffffffffffffffffffffffffffffffffffffffff163373ffffffffffffffffffffffffffffffffffffffff1614610ec9576040517f08c379a0000000000000000000000000000000000000000000000000000000008152600401610ec0906137c9565b60405180910390fd5b826004548110610f0e576040517f08c379a0000000000000000000000000000000000000000000000000000000008152600401610f059061373b565b60405180910390fd5b82825f5f8781526020019081526020015f206001019182610f30929190613991565b5050505050565b606080606060045467ffffffffffffffff811115610f5857610f57612926565b5b604051908082528060200260200182016040528015610f8b57816020015b6060815260200190600190039081610f765790505b50925060045467ffffffffffffffff811115610faa57610fa9612926565b5b604051908082528060200260200182016040528015610fd85781602001602082028036833780820191505090505b50915060045467ffffffffffffffff811115610ff757610ff6612926565b5b6040519080825280602002602001820160405280156110255781602001602082028036833780820191505090505b5090505f5f90505b600454811015611173575f5f8281526020019081526020015f205f018054611054906136c1565b80601f0160208091040260200160405190810160405280929190818152602001828054611080906136c1565b80156110cb5780601f106110a2576101008083540402835291602001916110cb565b820191905f5260205f20905b8154815290600101906020018083116110ae57829003601f168201915b50505050508482815181106110e3576110e2613a5e565b5b60200260200101819052505f5f8281526020019081526020015f206003015f9054906101000a900460ff1683828151811061112157611120613a5e565b5b6020026020010190151590811515815250505f5f8281526020019081526020015f206004015482828151811061115a57611159613a5e565b5b602002602001018181525050808060010191505061102d565b50909192565b60065f9054906101000a900473ffffffffffffffffffffffffffffffffffffffff1681565b606060065f9054906101000a900473ffffffffffffffffffffffffffffffffffffffff1673ffffffffffffffffffffffffffffffffffffffff163373ffffffffffffffffffffffffffffffffffffffff161461122f576040517f08c379a0000000000000000000000000000000000000000000000000000000008152600401611226906137c9565b60405180910390fd5b816004548110611274576040517f08c379a000000000000000000000000000000000000000000000000000000000815260040161126b9061373b565b60405180910390fd5b5f60035f8581526020019081526020015f2080548060200260200160405190810160405280929190818152602001828054801561130357602002820191905f5260205f20905b815f9054906101000a900473ffffffffffffffffffffffffffffffffffffffff1673ffffffffffffffffffffffffffffffffffffffff16815260200190600101908083116112ba575b505050505090505f815167ffffffffffffffff81111561132657611325612926565b5b60405190808252806020026020018201604052801561135f57816020015b61134c61257d565b8152602001906001900390816113445790505b5090505f5f90505b82518110156116685760015f8781526020019081526020015f205f84838151811061139557611394613a5e565b5b602002602001015173ffffffffffffffffffffffffffffffffffffffff1673ffffffffffffffffffffffffffffffffffffffff1681526020019081526020015f206040518060c00160405290815f82015481526020016001820180546113fa906136c1565b80601f0160208091040260200160405190810160405280929190818152602001828054611426906136c1565b80156114715780601f1061144857610100808354040283529160200191611471565b820191905f5260205f20905b81548152906001019060200180831161145457829003601f168201915b5050505050815260200160028201805461148a906136c1565b80601f01602080910402602001604051908101604052809291908181526020018280546114b6906136c1565b80156115015780601f106114d857610100808354040283529160200191611501565b820191905f5260205f20905b8154815290600101906020018083116114e457829003601f168201915b5050505050815260200160038201805480602002602001604051908101604052809291908181526020015f905b828210156115d6578382905f5260205f2001805461154b906136c1565b80601f0160208091040260200160405190810160405280929190818152602001828054611577906136c1565b80156115c25780601f10611599576101008083540402835291602001916115c2565b820191905f5260205f20905b8154815290600101906020018083116115a557829003601f168201915b50505050508152602001906001019061152e565b50505050815260200160048201548152602001600582015f9054906101000a900473ffffffffffffffffffffffffffffffffffffffff1673ffffffffffffffffffffffffffffffffffffffff1673ffffffffffffffffffffffffffffffffffffffff16815250508282815181106116505761164f613a5e565b5b60200260200101819052508080600101915050611367565b50809350505050919050565b60065f9054906101000a900473ffffffffffffffffffffffffffffffffffffffff1673ffffffffffffffffffffffffffffffffffffffff163373ffffffffffffffffffffffffffffffffffffffff1614611703576040517f08c379a00000000000000000000000000000000000000000000000000000000081526004016116fa906137c9565b60405180910390fd5b5f8888905011611748576040517f08c379a000000000000000000000000000000000000000000000000000000000815260040161173f90613ad5565b60405180910390fd5b5f848490501161178d576040517f08c379a000000000000000000000000000000000000000000000000000000000815260040161178490613b63565b60405180910390fd5b8181905084849050146117d5576040517f08c379a00000000000000000000000000000000000000000000000000000000081526004016117cc90613bf1565b60405180910390fd5b5f600454905088885f5f8481526020019081526020015f205f0191826117fc929190613991565b5086865f5f8481526020019081526020015f20600101918261181f929190613991565b5060015f5f8381526020019081526020015f206003015f6101000a81548160ff0219169083151502179055505f5f5f8381526020019081526020015f2060040181905550425f5f8381526020019081526020015f20600501819055505f5f90505b858590508110156119aa575f5f8381526020019081526020015f2060020160405180604001604052808888858181106118bc576118bb613a5e565b5b90506020028101906118ce9190613c1b565b8080601f0160208091040260200160405190810160405280939291908181526020018383808284375f81840152601f19601f82011690508083019250505050505050815260200186868581811061192857611927613a5e565b5b905060200201602081019061193d9190613c7d565b1515815250908060018154018082558091505060019003905f5260205f2090600202015f909190919091505f820151815f01908161197b9190613ca8565b506020820151816001015f6101000a81548160ff02191690831515021790555050508080600101915050611880565b5060045f8154809291906119bd90613da4565b9190505550807f6897c48d732e1157e56e3e9f3f623bcb32cb70989124e0ead1bf3eccbb40bdad8a8a88889050426040516119fb9493929190613e17565b60405180910390a2505050505050505050565b60055481565b5f826004548110611a5a576040517f08c379a0000000000000000000000000000000000000000000000000000000008152600401611a519061373b565b60405180910390fd5b5f60015f8681526020019081526020015f205f8573ffffffffffffffffffffffffffffffffffffffff1673ffffffffffffffffffffffffffffffffffffffff1681526020019081526020015f20600401541191505092915050565b6003602052815f5260405f208181548110611ace575f80fd5b905f5260205f20015f915091509054906101000a900473ffffffffffffffffffffffffffffffffffffffff1681565b5f5f600454600554915091509091565b6060816004548110611b54576040517f08c379a0000000000000000000000000000000000000000000000000000000008152600401611b4b9061373b565b60405180910390fd5b5f5f8481526020019081526020015f20600201805480602002602001604051908101604052809291908181526020015f905b82821015611c5f578382905f5260205f2090600202016040518060400160405290815f82018054611bb6906136c1565b80601f0160208091040260200160405190810160405280929190818152602001828054611be2906136c1565b8015611c2d5780601f10611c0457610100808354040283529160200191611c2d565b820191905f5260205f20905b815481529060010190602001808311611c1057829003601f168201915b50505050508152602001600182015f9054906101000a900460ff16151515158152505081526020019060010190611b86565b50505050915050919050565b866004548110611cb0576040517f08c379a0000000000000000000000000000000000000000000000000000000008152600401611ca79061373b565b60405180910390fd5b5f5f8981526020019081526020015f206003015f9054906101000a900460ff16611d0f576040517f08c379a0000000000000000000000000000000000000000000000000000000008152600401611d0690613e9f565b60405180910390fd5b5f8787905011611d54576040517f08c379a0000000000000000000000000000000000000000000000000000000008152600401611d4b90613f07565b60405180910390fd5b5f8585905011611d99576040517f08c379a0000000000000000000000000000000000000000000000000000000008152600401611d9090613f6f565b60405180910390fd5b60025f8981526020019081526020015f208585604051611dba929190613fbb565b90815260200160405180910390205f9054906101000a900460ff1615611e15576040517f08c379a0000000000000000000000000000000000000000000000000000000008152600401611e0c90614043565b60405180910390fd5b5f60015f8a81526020019081526020015f205f3373ffffffffffffffffffffffffffffffffffffffff1673ffffffffffffffffffffffffffffffffffffffff1681526020019081526020015f206004015414611ea6576040517f08c379a0000000000000000000000000000000000000000000000000000000008152600401611e9d906140d1565b60405180910390fd5b5f5f8981526020019081526020015f20600201805490508383905014611f01576040517f08c379a0000000000000000000000000000000000000000000000000000000008152600401611ef89061415f565b60405180910390fd5b5f5f90505b5f5f8a81526020019081526020015f2060020180549050811015611fe0575f5f8a81526020019081526020015f206002018181548110611f4957611f48613a5e565b5b905f5260205f2090600202016001015f9054906101000a900460ff1615611fd3575f848483818110611f7e57611f7d613a5e565b5b9050602002810190611f909190613c1b565b905011611fd2576040517f08c379a0000000000000000000000000000000000000000000000000000000008152600401611fc9906141c7565b60405180910390fd5b5b8080600101915050611f06565b506040518060c0016040528089815260200188888080601f0160208091040260200160405190810160405280939291908181526020018383808284375f81840152601f19601f82011690508083019250505050505050815260200186868080601f0160208091040260200160405190810160405280939291908181526020018383808284375f81840152601f19601f8201169050808301925050505050505081526020018484906120919190614296565b81526020014281526020013373ffffffffffffffffffffffffffffffffffffffff1681525060015f8a81526020019081526020015f205f3373ffffffffffffffffffffffffffffffffffffffff1673ffffffffffffffffffffffffffffffffffffffff1681526020019081526020015f205f820151815f0155602082015181600101908161211f9190613ca8565b5060408201518160020190816121359190613ca8565b5060608201518160030190805190602001906121529291906125c6565b506080820151816004015560a0820151816005015f6101000a81548173ffffffffffffffffffffffffffffffffffffffff021916908373ffffffffffffffffffffffffffffffffffffffff160217905550905050600160025f8a81526020019081526020015f2086866040516121c9929190613fbb565b90815260200160405180910390205f6101000a81548160ff02191690831515021790555060035f8981526020019081526020015f2033908060018154018082558091505060019003905f5260205f20015f9091909190916101000a81548173ffffffffffffffffffffffffffffffffffffffff021916908373ffffffffffffffffffffffffffffffffffffffff1602179055505f5f8981526020019081526020015f206004015f81548092919061227f90613da4565b919050555060055f81548092919061229690613da4565b91905055503373ffffffffffffffffffffffffffffffffffffffff16887f5ed33d17f508eab7440e929d15fda3db2221f6d15ceaa716b92b29a48fa051c187878b8b426040516122ea9594939291906142aa565b60405180910390a35050505050505050565b60065f9054906101000a900473ffffffffffffffffffffffffffffffffffffffff1673ffffffffffffffffffffffffffffffffffffffff163373ffffffffffffffffffffffffffffffffffffffff161461238b576040517f08c379a0000000000000000000000000000000000000000000000000000000008152600401612382906137c9565b60405180910390fd5b8260045481106123d0576040517f08c379a00000000000000000000000000000000000000000000000000000000081526004016123c79061373b565b60405180910390fd5b5f8383905011612415576040517f08c379a000000000000000000000000000000000000000000000000000000000815260040161240c90613ad5565b60405180910390fd5b82825f5f8781526020019081526020015f205f019182612436929190613991565b5050505050565b60065f9054906101000a900473ffffffffffffffffffffffffffffffffffffffff1673ffffffffffffffffffffffffffffffffffffffff163373ffffffffffffffffffffffffffffffffffffffff16146124cc576040517f08c379a00000000000000000000000000000000000000000000000000000000081526004016124c3906137c9565b60405180910390fd5b5f73ffffffffffffffffffffffffffffffffffffffff168173ffffffffffffffffffffffffffffffffffffffff160361253a576040517f08c379a00000000000000000000000000000000000000000000000000000000081526004016125319061433b565b60405180910390fd5b8060065f6101000a81548173ffffffffffffffffffffffffffffffffffffffff021916908373ffffffffffffffffffffffffffffffffffffffff16021790555050565b6040518060c001604052805f81526020016060815260200160608152602001606081526020015f81526020015f73ffffffffffffffffffffffffffffffffffffffff1681525090565b828054828255905f5260205f2090810192821561260c579160200282015b8281111561260b5782518290816125fb9190613ca8565b50916020019190600101906125e4565b5b509050612619919061261d565b5090565b5b8082111561263c575f81816126339190612640565b5060010161261e565b5090565b50805461264c906136c1565b5f825580601f1061265d575061267a565b601f0160209004905f5260205f2090810190612679919061267d565b5b50565b5b80821115612694575f815f90555060010161267e565b5090565b5f604051905090565b5f5ffd5b5f5ffd5b5f819050919050565b6126bb816126a9565b81146126c5575f5ffd5b50565b5f813590506126d6816126b2565b92915050565b5f73ffffffffffffffffffffffffffffffffffffffff82169050919050565b5f612705826126dc565b9050919050565b612715816126fb565b811461271f575f5ffd5b50565b5f813590506127308161270c565b92915050565b5f5f6040838503121561274c5761274b6126a1565b5b5f612759858286016126c8565b925050602061276a85828601612722565b9150509250929050565b61277d816126a9565b82525050565b5f81519050919050565b5f82825260208201905092915050565b8281835e5f83830152505050565b5f601f19601f8301169050919050565b5f6127c582612783565b6127cf818561278d565b93506127df81856020860161279d565b6127e8816127ab565b840191505092915050565b6127fc816126fb565b82525050565b5f60a0820190506128155f830188612774565b818103602083015261282781876127bb565b9050818103604083015261283b81866127bb565b905061284a6060830185612774565b61285760808301846127f3565b9695505050505050565b5f60208284031215612876576128756126a1565b5b5f612883848285016126c8565b91505092915050565b5f8115159050919050565b6128a08161288c565b82525050565b5f60a0820190508181035f8301526128be81886127bb565b905081810360208301526128d281876127bb565b90506128e16040830186612897565b6128ee6060830185612774565b6128fb6080830184612774565b9695505050505050565b5f6020820190506129185f830184612774565b92915050565b5f5ffd5b5f5ffd5b7f4e487b71000000000000000000000000000000000000000000000000000000005f52604160045260245ffd5b61295c826127ab565b810181811067ffffffffffffffff8211171561297b5761297a612926565b5b80604052505050565b5f61298d612698565b90506129998282612953565b919050565b5f67ffffffffffffffff8211156129b8576129b7612926565b5b6129c1826127ab565b9050602081019050919050565b828183375f83830152505050565b5f6129ee6129e98461299e565b612984565b905082815260208101848484011115612a0a57612a09612922565b5b612a158482856129ce565b509392505050565b5f82601f830112612a3157612a3061291e565b5b8135612a418482602086016129dc565b91505092915050565b5f5f60408385031215612a6057612a5f6126a1565b5b5f612a6d858286016126c8565b925050602083013567ffffffffffffffff811115612a8e57612a8d6126a5565b5b612a9a85828601612a1d565b9150509250929050565b5f602082019050612ab75f830184612897565b92915050565b5f60c0820190508181035f830152612ad581896127bb565b90508181036020830152612ae981886127bb565b9050612af86040830187612774565b612b056060830186612897565b612b126080830185612774565b612b1f60a0830184612774565b979650505050505050565b612b338161288c565b8114612b3d575f5ffd5b50565b5f81359050612b4e81612b2a565b92915050565b5f5f60408385031215612b6a57612b696126a1565b5b5f612b77858286016126c8565b9250506020612b8885828601612b40565b9150509250929050565b612b9b816126a9565b82525050565b5f82825260208201905092915050565b5f612bbb82612783565b612bc58185612ba1565b9350612bd581856020860161279d565b612bde816127ab565b840191505092915050565b5f81519050919050565b5f82825260208201905092915050565b5f819050602082019050919050565b5f612c1d8383612bb1565b905092915050565b5f602082019050919050565b5f612c3b82612be9565b612c458185612bf3565b935083602082028501612c5785612c03565b805f5b85811015612c925784840389528151612c738582612c12565b9450612c7e83612c25565b925060208a01995050600181019050612c5a565b50829750879550505050505092915050565b612cad816126fb565b82525050565b5f60c083015f830151612cc85f860182612b92565b5060208301518482036020860152612ce08282612bb1565b91505060408301518482036040860152612cfa8282612bb1565b91505060608301518482036060860152612d148282612c31565b9150506080830151612d296080860182612b92565b5060a0830151612d3c60a0860182612ca4565b508091505092915050565b5f6020820190508181035f830152612d5f8184612cb3565b905092915050565b5f81519050919050565b5f82825260208201905092915050565b5f819050602082019050919050565b5f612d9b8383612ca4565b60208301905092915050565b5f602082019050919050565b5f612dbd82612d67565b612dc78185612d71565b9350612dd283612d81565b805f5b83811015612e02578151612de98882612d90565b9750612df483612da7565b925050600181019050612dd5565b5085935050505092915050565b5f6020820190508181035f830152612e278184612db3565b905092915050565b5f5ffd5b5f5ffd5b5f5f83601f840112612e4c57612e4b61291e565b5b8235905067ffffffffffffffff811115612e6957612e68612e2f565b5b602083019150836001820283011115612e8557612e84612e33565b5b9250929050565b5f5f5f60408486031215612ea357612ea26126a1565b5b5f612eb0868287016126c8565b935050602084013567ffffffffffffffff811115612ed157612ed06126a5565b5b612edd86828701612e37565b92509250509250925092565b5f82825260208201905092915050565b5f612f0382612be9565b612f0d8185612ee9565b935083602082028501612f1f85612c03565b805f5b85811015612f5a5784840389528151612f3b8582612c12565b9450612f4683612c25565b925060208a01995050600181019050612f22565b50829750879550505050505092915050565b5f81519050919050565b5f82825260208201905092915050565b5f819050602082019050919050565b612f9e8161288c565b82525050565b5f612faf8383612f95565b60208301905092915050565b5f602082019050919050565b5f612fd182612f6c565b612fdb8185612f76565b9350612fe683612f86565b805f5b83811015613016578151612ffd8882612fa4565b975061300883612fbb565b925050600181019050612fe9565b5085935050505092915050565b5f81519050919050565b5f82825260208201905092915050565b5f819050602082019050919050565b5f6130578383612b92565b60208301905092915050565b5f602082019050919050565b5f61307982613023565b613083818561302d565b935061308e8361303d565b805f5b838110156130be5781516130a5888261304c565b97506130b083613063565b925050600181019050613091565b5085935050505092915050565b5f6060820190508181035f8301526130e38186612ef9565b905081810360208301526130f78185612fc7565b9050818103604083015261310b818461306f565b9050949350505050565b5f6020820190506131285f8301846127f3565b92915050565b5f81519050919050565b5f82825260208201905092915050565b5f819050602082019050919050565b5f60c083015f83015161316c5f860182612b92565b50602083015184820360208601526131848282612bb1565b9150506040830151848203604086015261319e8282612bb1565b915050606083015184820360608601526131b88282612c31565b91505060808301516131cd6080860182612b92565b5060a08301516131e060a0860182612ca4565b508091505092915050565b5f6131f68383613157565b905092915050565b5f602082019050919050565b5f6132148261312e565b61321e8185613138565b93508360208202850161323085613148565b805f5b8581101561326b578484038952815161324c85826131eb565b9450613257836131fe565b925060208a01995050600181019050613233565b50829750879550505050505092915050565b5f6020820190508181035f830152613295818461320a565b905092915050565b5f5f83601f8401126132b2576132b161291e565b5b8235905067ffffffffffffffff8111156132cf576132ce612e2f565b5b6020830191508360208202830111156132eb576132ea612e33565b5b9250929050565b5f5f83601f8401126133075761330661291e565b5b8235905067ffffffffffffffff81111561332457613323612e2f565b5b6020830191508360208202830111156133405761333f612e33565b5b9250929050565b5f5f5f5f5f5f5f5f6080898b031215613363576133626126a1565b5b5f89013567ffffffffffffffff8111156133805761337f6126a5565b5b61338c8b828c01612e37565b9850985050602089013567ffffffffffffffff8111156133af576133ae6126a5565b5b6133bb8b828c01612e37565b9650965050604089013567ffffffffffffffff8111156133de576133dd6126a5565b5b6133ea8b828c0161329d565b9450945050606089013567ffffffffffffffff81111561340d5761340c6126a5565b5b6134198b828c016132f2565b92509250509295985092959890939650565b5f5f60408385031215613441576134406126a1565b5b5f61344e858286016126c8565b925050602061345f858286016126c8565b9150509250929050565b5f60408201905061347c5f830185612774565b6134896020830184612774565b9392505050565b5f81519050919050565b5f82825260208201905092915050565b5f819050602082019050919050565b5f604083015f8301518482035f8601526134d38282612bb1565b91505060208301516134e86020860182612f95565b508091505092915050565b5f6134fe83836134b9565b905092915050565b5f602082019050919050565b5f61351c82613490565b613526818561349a565b935083602082028501613538856134aa565b805f5b85811015613573578484038952815161355485826134f3565b945061355f83613506565b925060208a0199505060018101905061353b565b50829750879550505050505092915050565b5f6020820190508181035f83015261359d8184613512565b905092915050565b5f5f5f5f5f5f5f6080888a0312156135c0576135bf6126a1565b5b5f6135cd8a828b016126c8565b975050602088013567ffffffffffffffff8111156135ee576135ed6126a5565b5b6135fa8a828b01612e37565b9650965050604088013567ffffffffffffffff81111561361d5761361c6126a5565b5b6136298a828b01612e37565b9450945050606088013567ffffffffffffffff81111561364c5761364b6126a5565b5b6136588a828b0161329d565b925092505092959891949750929550565b5f6020828403121561367e5761367d6126a1565b5b5f61368b84828501612722565b91505092915050565b7f4e487b71000000000000000000000000000000000000000000000000000000005f52602260045260245ffd5b5f60028204905060018216806136d857607f821691505b6020821081036136eb576136ea613694565b5b50919050565b7f466f726d20646f6573206e6f74206578697374000000000000000000000000005f82015250565b5f61372560138361278d565b9150613730826136f1565b602082019050919050565b5f6020820190508181035f83015261375281613719565b9050919050565b7f4f6e6c79206f776e65722063616e2063616c6c20746869732066756e6374696f5f8201527f6e00000000000000000000000000000000000000000000000000000000000000602082015250565b5f6137b360218361278d565b91506137be82613759565b604082019050919050565b5f6020820190508181035f8301526137e0816137a7565b9050919050565b5f82905092915050565b5f819050815f5260205f209050919050565b5f6020601f8301049050919050565b5f82821b905092915050565b5f6008830261384d7fffffffffffffffffffffffffffffffffffffffffffffffffffffffffffffffff82613812565b6138578683613812565b95508019841693508086168417925050509392505050565b5f819050919050565b5f61389261388d613888846126a9565b61386f565b6126a9565b9050919050565b5f819050919050565b6138ab83613878565b6138bf6138b782613899565b84845461381e565b825550505050565b5f5f905090565b6138d66138c7565b6138e18184846138a2565b505050565b5b81811015613904576138f95f826138ce565b6001810190506138e7565b5050565b601f8211156139495761391a816137f1565b61392384613803565b81016020851015613932578190505b61394661393e85613803565b8301826138e6565b50505b505050565b5f82821c905092915050565b5f6139695f198460080261394e565b1980831691505092915050565b5f613981838361395a565b9150826002028217905092915050565b61399b83836137e7565b67ffffffffffffffff8111156139b4576139b3612926565b5b6139be82546136c1565b6139c9828285613908565b5f601f8311600181146139f6575f84156139e4578287013590505b6139ee8582613976565b865550613a55565b601f198416613a04866137f1565b5f5b82811015613a2b57848901358255600182019150602085019450602081019050613a06565b86831015613a485784890135613a44601f89168261395a565b8355505b6001600288020188555050505b50505050505050565b7f4e487b71000000000000000000000000000000000000000000000000000000005f52603260045260245ffd5b7f5469746c652069732072657175697265640000000000000000000000000000005f82015250565b5f613abf60118361278d565b9150613aca82613a8b565b602082019050919050565b5f6020820190508181035f830152613aec81613ab3565b9050919050565b7f4174206c65617374206f6e65207175657374696f6e20697320726571756972655f8201527f6400000000000000000000000000000000000000000000000000000000000000602082015250565b5f613b4d60218361278d565b9150613b5882613af3565b604082019050919050565b5f6020820190508181035f830152613b7a81613b41565b9050919050565b7f5175657374696f6e7320616e6420726571756972656420666c616773206d75735f8201527f7420686176652073616d65206c656e6774680000000000000000000000000000602082015250565b5f613bdb60328361278d565b9150613be682613b81565b604082019050919050565b5f6020820190508181035f830152613c0881613bcf565b9050919050565b5f5ffd5b5f5ffd5b5f5ffd5b5f5f83356001602003843603038112613c3757613c36613c0f565b5b80840192508235915067ffffffffffffffff821115613c5957613c58613c13565b5b602083019250600182023603831315613c7557613c74613c17565b5b509250929050565b5f60208284031215613c9257613c916126a1565b5b5f613c9f84828501612b40565b91505092915050565b613cb182612783565b67ffffffffffffffff811115613cca57613cc9612926565b5b613cd482546136c1565b613cdf828285613908565b5f60209050601f831160018114613d10575f8415613cfe578287015190505b613d088582613976565b865550613d6f565b601f198416613d1e866137f1565b5f5b82811015613d4557848901518255600182019150602085019450602081019050613d20565b86831015613d625784890151613d5e601f89168261395a565b8355505b6001600288020188555050505b505050505050565b7f4e487b71000000000000000000000000000000000000000000000000000000005f52601160045260245ffd5b5f613dae826126a9565b91507fffffffffffffffffffffffffffffffffffffffffffffffffffffffffffffffff8203613de057613ddf613d77565b5b600182019050919050565b5f613df6838561278d565b9350613e038385846129ce565b613e0c836127ab565b840190509392505050565b5f6060820190508181035f830152613e30818688613deb565b9050613e3f6020830185612774565b613e4c6040830184612774565b95945050505050565b7f466f726d206973206e6f742061637469766500000000000000000000000000005f82015250565b5f613e8960128361278d565b9150613e9482613e55565b602082019050919050565b5f6020820190508181035f830152613eb681613e7d565b9050919050565b7f557365726e616d652069732072657175697265640000000000000000000000005f82015250565b5f613ef160148361278d565b9150613efc82613ebd565b602082019050919050565b5f6020820190508181035f830152613f1e81613ee5565b9050919050565b7f456d61696c2069732072657175697265640000000000000000000000000000005f82015250565b5f613f5960118361278d565b9150613f6482613f25565b602082019050919050565b5f6020820190508181035f830152613f8681613f4d565b9050919050565b5f81905092915050565b5f613fa28385613f8d565b9350613faf8385846129ce565b82840190509392505050565b5f613fc7828486613f97565b91508190509392505050565b7f456d61696c20616c7265616479207265676973746572656420666f72207468695f8201527f7320666f726d0000000000000000000000000000000000000000000000000000602082015250565b5f61402d60268361278d565b915061403882613fd3565b604082019050919050565b5f6020820190508181035f83015261405a81614021565b9050919050565b7f4164647265737320616c7265616479207375626d697474656420746f207468695f8201527f7320666f726d0000000000000000000000000000000000000000000000000000602082015250565b5f6140bb60268361278d565b91506140c682614061565b604082019050919050565b5f6020820190508181035f8301526140e8816140af565b9050919050565b7f416e7377657220636f756e74206d757374206d61746368207175657374696f6e5f8201527f20636f756e740000000000000000000000000000000000000000000000000000602082015250565b5f61414960268361278d565b9150614154826140ef565b604082019050919050565b5f6020820190508181035f8301526141768161413d565b9050919050565b7f5265717569726564207175657374696f6e206e6f7420616e73776572656400005f82015250565b5f6141b1601e8361278d565b91506141bc8261417d565b602082019050919050565b5f6020820190508181035f8301526141de816141a5565b9050919050565b5f67ffffffffffffffff8211156141ff576141fe612926565b5b602082029050602081019050919050565b5f61422261421d846141e5565b612984565b9050808382526020820190506020840283018581111561424557614244612e33565b5b835b8181101561428c57803567ffffffffffffffff81111561426a5761426961291e565b5b8086016142778982612a1d565b85526020850194505050602081019050614247565b5050509392505050565b5f6142a2368484614210565b905092915050565b5f6060820190508181035f8301526142c3818789613deb565b905081810360208301526142d8818587613deb565b90506142e76040830184612774565b9695505050505050565b7f4e6577206f776e65722063616e6e6f74206265207a65726f20616464726573735f82015250565b5f61432560208361278d565b9150614330826142f1565b602082019050919050565b5f6020820190508181035f83015261435281614319565b905091905056fea2646970667358221220c70de73fc1d59e062ce70e85bfbaf16900ca9a03ec096d538970466adc11bb2264736f6c634300081e0033","linkReferences":{}},"methodIdentifiers":{"createForm(string,string,string[],bool[])":"9eba72e8","emailExists(uint256,string)":"453e1176","formSubmitters(uint256,uint256)":"b3b26ae2","forms(uint256)":"18c864e3","getAllFormSubmissions(uint256)":"8f207f08","getAllForms()":"8c140ba2","getForm(uint256)":"479fa2c3","getFormQuestions(uint256)":"c770b2ab","getFormSubmitters(uint256)":"5711374e","getStats()":"c59d4847","getSubmission(uint256,address)":"55f0e221","hasSubmitted(uint256,address)":"a57d3806","owner()":"8da5cb5b","setFormActive(uint256,bool)":"5509745e","submissions(uint256,address)":"0e4dbf5c","submitForm(uint256,string,string,string[])":"c86b2cc8","totalForms()":"3551c315","totalSubmissions()":"a3954016","transferOwnership(address)":"f2fde38b","updateFormDescription(uint256,string)":"808a35b8","updateFormTitle(uint256,string)":"cf68f015"},"id":19}