{"abi":[{"type":"function","name":"createForm","inputs":[{"name":"_title","type":"string","internalType":"string"},{"name":"_description","type":"string","internalType":"string"},{"name":"_questions","type":"string[]","internalType":"string[]"},{"name":"_isRequired","type":"bool[]","internalType":"bool[]"}],"outputs":[],"stateMutability":"nonpayable"},{"type":"function","name":"emailExists","inputs":[{"name":"","type":"uint256","internalType":"uint256"},{"name":"","type":"string","internalType":"string"}],"outputs":[{"name":"","type":"bool","internalType":"bool"}],"stateMutability":"view"},{"type":"function","name":"formSubmitters","inputs":[{"name":"","type":"uint256","internalType":"uint256"},{"name":"","type":"uint256","internalType":"uint256"}],"outputs":[{"name":"","type":"address","internalType":"address"}],"stateMutability":"view"},{"type":"function","name":"forms","inputs":[{"name":"","type":"uint256","internalType":"uint256"}],"outputs":[{"name":"title","type":"string","internalType":"string"},{"name":"description","type":"string","internalType":"string"},{"name":"isActive","type":"bool","internalType":"bool"},{"name":"totalSubmissions","type":"uint256","internalType":"uint256"},{"name":"createdAt","type":"uint256","internalType":"uint256"},{"name":"creator","type":"address","internalType":"address"}],"stateMutability":"view"},{"type":"function","name":"getAllFormSubmissions","inputs":[{"name":"_formId","type":"uint256","internalType":"uint256"}],"outputs":[{"name":"","type":"tuple[]","internalType":"struct SwagForm.Submission[]","components":[{"name":"formId","type":"uint256","internalType":"uint256"},{"name":"username","type":"string","internalType":"string"},{"name":"email","type":"string","internalType":"string"},{"name":"answers","type":"string[]","internalType":"string[]"},{"name":"timestamp","type":"uint256","internalType":"uint256"},{"name":"submitter","type":"address","internalType":"address"}]}],"stateMutability":"view"},{"type":"function","name":"getAllForms","inputs":[],"outputs":[{"name":"titles","type":"string[]","internalType":"string[]"},{"name":"activeStatus","type":"bool[]","internalType":"bool[]"},{"name":"submissionCounts","type":"uint256[]","internalType":"uint256[]"},{"name":"creators","type":"address[]","internalType":"address[]"}],"stateMutability":"view"},{"type":"function","name":"getForm","inputs":[{"name":"_formId","type":"uint256","internalType":"uint256"}],"outputs":[{"name":"title","type":"string","internalType":"string"},{"name":"description","type":"string","internalType":"string"},{"name":"questionsCount","type":"uint256","internalType":"uint256"},{"name":"isActive","type":"bool","internalType":"bool"},{"name":"totalSubmissions","type":"uint256","internalType":"uint256"},{"name":"createdAt","type":"uint256","internalType":"uint256"},{"name":"creator","type":"address","internalType":"address"}],"stateMutability":"view"},{"type":"function","name":"getFormQuestions","inputs":[{"name":"_formId","type":"uint256","internalType":"uint256"}],"outputs":[{"name":"","type":"tuple[]","internalType":"struct SwagForm.Question[]","components":[{"name":"questionText","type":"string","internalType":"string"},{"name":"isRequired","type":"bool","internalType":"bool"}]}],"stateMutability":"view"},{"type":"function","name":"getFormSubmitters","inputs":[{"name":"_formId","type":"uint256","internalType":"uint256"}],"outputs":[{"name":"","type":"address[]","internalType":"address[]"}],"stateMutability":"view"},{"type":"function","name":"getStats","inputs":[],"outputs":[{"name":"totalFormsCount","type":"uint256","internalType":"uint256"},{"name":"totalSubmissionsCount","type":"uint256","internalType":"uint256"}],"stateMutability":"view"},{"type":"function","name":"getSubmission","inputs":[{"name":"_formId","type":"uint256","internalType":"uint256"},{"name":"_user","type":"address","internalType":"address"}],"outputs":[{"name":"","type":"tuple","internalType":"struct SwagForm.Submission","components":[{"name":"formId","type":"uint256","internalType":"uint256"},{"name":"username","type":"string","internalType":"string"},{"name":"email","type":"string","internalType":"string"},{"name":"answers","type":"string[]","internalType":"string[]"},{"name":"timestamp","type":"uint256","internalType":"uint256"},{"name":"submitter","type":"address","internalType":"address"}]}],"stateMutability":"view"},{"type":"function","name":"getUserForms","inputs":[{"name":"_user","type":"address","internalType":"address"}],"outputs":[{"name":"","type":"uint256[]","internalType":"uint256[]"}],"stateMutability":"view"},{"type":"function","name":"getUserStats","inputs":[{"name":"_user","type":"address","internalType":"address"}],"outputs":[{"name":"formsCreated","type":"uint256","internalType":"uint256"},{"name":"formsSubmitted","type":"uint256","internalType":"uint256"}],"stateMutability":"view"},{"type":"function","name":"hasSubmitted","inputs":[{"name":"_formId","type":"uint256","internalType":"uint256"},{"name":"_user","type":"address","internalType":"address"}],"outputs":[{"name":"","type":"bool","internalType":"bool"}],"stateMutability":"view"},{"type":"function","name":"isFormCreator","inputs":[{"name":"_formId","type":"uint256","internalType":"uint256"},{"name":"_user","type":"address","internalType":"address"}],"outputs":[{"name":"","type":"bool","internalType":"bool"}],"stateMutability":"view"},{"type":"function","name":"setFormActive","inputs":[{"name":"_formId","type":"uint256","internalType":"uint256"},{"name":"_active","type":"bool","internalType":"bool"}],"outputs":[],"stateMutability":"nonpayable"},{"type":"function","name":"submissions","inputs":[{"name":"","type":"uint256","internalType":"uint256"},{"name":"","type":"address","internalType":"address"}],"outputs":[{"name":"formId","type":"uint256","internalType":"uint256"},{"name":"username","type":"string","internalType":"string"},{"name":"email","type":"string","internalType":"string"},{"name":"timestamp","type":"uint256","internalType":"uint256"},{"name":"submitter","type":"address","internalType":"address"}],"stateMutability":"view"},{"type":"function","name":"submitForm","inputs":[{"name":"_formId","type":"uint256","internalType":"uint256"},{"name":"_username","type":"string","internalType":"string"},{"name":"_email","type":"string","internalType":"string"},{"name":"_answers","type":"string[]","internalType":"string[]"}],"outputs":[],"stateMutability":"nonpayable"},{"type":"function","name":"totalForms","inputs":[],"outputs":[{"name":"","type":"uint256","internalType":"uint256"}],"stateMutability":"view"},{"type":"function","name":"totalSubmissions","inputs":[],"outputs":[{"name":"","type":"uint256","internalType":"uint256"}],"stateMutability":"view"},{"type":"function","name":"updateFormDescription","inputs":[{"name":"_formId","type":"uint256","internalType":"uint256"},{"name":"_description","type":"string","internalType":"string"}],"outputs":[],"stateMutability":"nonpayable"},{"type":"function","name":"updateFormTitle","inputs":[{"name":"_formId","type":"uint256","internalType":"uint256"},{"name":"_title","type":"string","internalType":"string"}],"outputs":[],"stateMutability":"nonpayable"},{"type":"function","name":"userForms","inputs":[{"name":"","type":"address","internalType":"address"},{"name":"","type":"uint256","internalType":"uint256"}],"outputs":[{"name":"","type":"uint256","internalType":"uint256"}],"stateMutability":"view"},{"type":"event","name":"FormCreated","inputs":[{"name":"formId","type":"uint256","indexed":true,"internalType":"uint256"},{"name":"creator","type":"address","indexed":true,"internalType":"address"},{"name":"title","type":"string","indexed":false,"internalType":"string"},{"name":"questionsCount","type":"uint256","indexed":false,"internalType":"uint256"},{"name":"timestamp","type":"uint256","indexed":false,"internalType":"uint256"}],"anonymous":false},{"type":"event","name":"FormStatusChanged","inputs":[{"name":"formId","type":"uint256","indexed":true,"internalType":"uint256"},{"name":"active","type":"bool","indexed":false,"internalType":"bool"}],"anonymous":false},{"type":"event","name":"FormSubmitted","inputs":[{"name":"formId","type":"uint256","indexed":true,"internalType":"uint256"},{"name":"user","type":"address","indexed":true,"internalType":"address"},{"name":"email","type":"string","indexed":false,"internalType":"string"},{"name":"username","type":"string","indexed":false,"internalType":"string"},{"name":"timestamp","type":"uint256","indexed":false,"internalType":"uint256"}],"anonymous":false}],"bytecode":{"object":"0x6080604052348015600e575f5ffd5b506146da8061001c5f395ff3fe608060405234801561000f575f5ffd5b506004361061014b575f3560e01c80638f207f08116100c1578063c59d48471161007a578063c59d484714610420578063c770b2ab1461043f578063c86b2cc81461046f578063cb2f87081461048b578063cf68f015146104bb578063e4806e19146104d75761014b565b80638f207f08146103265780639eba72e814610356578063a395401614610372578063a57d380614610390578063ad0fcdf9146103c0578063b3b26ae2146103f05761014b565b80634e43603a116101135780634e43603a1461023c5780635509745e1461026d57806355f0e221146102895780635711374e146102b9578063808a35b8146102e95780638c140ba2146103055761014b565b80630e4dbf5c1461014f57806318c864e3146101835780633551c315146101b8578063453e1176146101d6578063479fa2c314610206575b5f5ffd5b61016960048036038101906101649190612a5a565b610507565b60405161017a959493929190612b26565b60405180910390f35b61019d60048036038101906101989190612b85565b61066f565b6040516101af96959493929190612bca565b60405180910390f35b6101c06107dd565b6040516101cd9190612c37565b60405180910390f35b6101f060048036038101906101eb9190612d7c565b6107e3565b6040516101fd9190612dd6565b60405180910390f35b610220600480360381019061021b9190612b85565b610825565b6040516102339796959493929190612def565b60405180910390f35b61025660048036038101906102519190612e6a565b610a02565b604051610264929190612e95565b60405180910390f35b61028760048036038101906102829190612ee6565b610ada565b005b6102a3600480360381019061029e9190612a5a565b610c28565b6040516102b091906130d9565b60405180910390f35b6102d360048036038101906102ce9190612b85565b610f31565b6040516102e091906131a1565b60405180910390f35b61030360048036038101906102fe919061321e565b611013565b005b61030d611123565b60405161031d949392919061345d565b60405180910390f35b610340600480360381019061033b9190612b85565b611434565b60405161034d919061360b565b60405180910390f35b610370600480360381019061036b91906136d5565b61191d565b005b61037a611cf1565b6040516103879190612c37565b60405180910390f35b6103aa60048036038101906103a59190612a5a565b611cf7565b6040516103b79190612dd6565b60405180910390f35b6103da60048036038101906103d59190612e6a565b611d98565b6040516103e791906137b9565b60405180910390f35b61040a600480360381019061040591906137d9565b611e2b565b6040516104179190613817565b60405180910390f35b610428611e73565b604051610436929190612e95565b60405180910390f35b61045960048036038101906104549190612b85565b611e83565b6040516104669190613925565b60405180910390f35b61048960048036038101906104849190613945565b611fe1565b005b6104a560048036038101906104a09190612a5a565b612672565b6040516104b29190612dd6565b60405180910390f35b6104d560048036038101906104d0919061321e565b612722565b005b6104f160048036038101906104ec9190613a09565b612876565b6040516104fe9190612c37565b60405180910390f35b6001602052815f5260405f20602052805f5260405f205f9150915050805f01549080600101805461053790613a74565b80601f016020809104026020016040519081016040528092919081815260200182805461056390613a74565b80156105ae5780601f10610585576101008083540402835291602001916105ae565b820191905f5260205f20905b81548152906001019060200180831161059157829003601f168201915b5050505050908060020180546105c390613a74565b80601f01602080910402602001604051908101604052809291908181526020018280546105ef90613a74565b801561063a5780601f106106115761010080835404028352916020019161063a565b820191905f5260205f20905b81548152906001019060200180831161061d57829003601f168201915b505050505090806004015490806005015f9054906101000a900473ffffffffffffffffffffffffffffffffffffffff16905085565b5f602052805f5260405f205f91509050805f01805461068d90613a74565b80601f01602080910402602001604051908101604052809291908181526020018280546106b990613a74565b80156107045780601f106106db57610100808354040283529160200191610704565b820191905f5260205f20905b8154815290600101906020018083116106e757829003601f168201915b50505050509080600101805461071990613a74565b80601f016020809104026020016040519081016040528092919081815260200182805461074590613a74565b80156107905780601f1061076757610100808354040283529160200191610790565b820191905f5260205f20905b81548152906001019060200180831161077357829003601f168201915b505050505090806003015f9054906101000a900460ff1690806004015490806005015490806006015f9054906101000a900473ffffffffffffffffffffffffffffffffffffffff16905086565b60055481565b6002602052815f5260405f20818051602081018201805184825260208301602085012081835280955050505050505f915091509054906101000a900460ff1681565b6060805f5f5f5f5f876005548110610872576040517f08c379a000000000000000000000000000000000000000000000000000000000815260040161086990613aee565b60405180910390fd5b5f5f5f8b81526020019081526020015f209050805f01816001018260020180549050836003015f9054906101000a900460ff1684600401548560050154866006015f9054906101000a900473ffffffffffffffffffffffffffffffffffffffff168680546108df90613a74565b80601f016020809104026020016040519081016040528092919081815260200182805461090b90613a74565b80156109565780601f1061092d57610100808354040283529160200191610956565b820191905f5260205f20905b81548152906001019060200180831161093957829003601f168201915b5050505050965085805461096990613a74565b80601f016020809104026020016040519081016040528092919081815260200182805461099590613a74565b80156109e05780601f106109b7576101008083540402835291602001916109e0565b820191905f5260205f20905b8154815290600101906020018083116109c357829003601f168201915b5050505050955098509850985098509850985098505050919395979092949650565b5f5f60045f8473ffffffffffffffffffffffffffffffffffffffff1673ffffffffffffffffffffffffffffffffffffffff1681526020019081526020015f208054905091505f5f90505f5f90505b600554811015610acd575f60015f8381526020019081526020015f205f8773ffffffffffffffffffffffffffffffffffffffff1673ffffffffffffffffffffffffffffffffffffffff1681526020019081526020015f20600401541115610ac0578180610abc90613b39565b9250505b8080600101915050610a50565b5082819250925050915091565b816005548110610b1f576040517f08c379a0000000000000000000000000000000000000000000000000000000008152600401610b1690613aee565b60405180910390fd5b823373ffffffffffffffffffffffffffffffffffffffff165f5f8381526020019081526020015f206006015f9054906101000a900473ffffffffffffffffffffffffffffffffffffffff1673ffffffffffffffffffffffffffffffffffffffff1614610bc0576040517f08c379a0000000000000000000000000000000000000000000000000000000008152600401610bb790613bf0565b60405180910390fd5b825f5f8681526020019081526020015f206003015f6101000a81548160ff021916908315150217905550837f7ac6617bfe956f26ac3773450ab6cd0ee4bf24eac9ea8fd7082e0a4ea1cc747584604051610c1a9190612dd6565b60405180910390a250505050565b610c306128a1565b826005548110610c75576040517f08c379a0000000000000000000000000000000000000000000000000000000008152600401610c6c90613aee565b60405180910390fd5b60015f8581526020019081526020015f205f8473ffffffffffffffffffffffffffffffffffffffff1673ffffffffffffffffffffffffffffffffffffffff1681526020019081526020015f206040518060c00160405290815f8201548152602001600182018054610ce590613a74565b80601f0160208091040260200160405190810160405280929190818152602001828054610d1190613a74565b8015610d5c5780601f10610d3357610100808354040283529160200191610d5c565b820191905f5260205f20905b815481529060010190602001808311610d3f57829003601f168201915b50505050508152602001600282018054610d7590613a74565b80601f0160208091040260200160405190810160405280929190818152602001828054610da190613a74565b8015610dec5780601f10610dc357610100808354040283529160200191610dec565b820191905f5260205f20905b815481529060010190602001808311610dcf57829003601f168201915b5050505050815260200160038201805480602002602001604051908101604052809291908181526020015f905b82821015610ec1578382905f5260205f20018054610e3690613a74565b80601f0160208091040260200160405190810160405280929190818152602001828054610e6290613a74565b8015610ead5780601f10610e8457610100808354040283529160200191610ead565b820191905f5260205f20905b815481529060010190602001808311610e9057829003601f168201915b505050505081526020019060010190610e19565b50505050815260200160048201548152602001600582015f9054906101000a900473ffffffffffffffffffffffffffffffffffffffff1673ffffffffffffffffffffffffffffffffffffffff1673ffffffffffffffffffffffffffffffffffffffff168152505091505092915050565b6060816005548110610f78576040517f08c379a0000000000000000000000000000000000000000000000000000000008152600401610f6f90613aee565b60405180910390fd5b60035f8481526020019081526020015f2080548060200260200160405190810160405280929190818152602001828054801561100657602002820191905f5260205f20905b815f9054906101000a900473ffffffffffffffffffffffffffffffffffffffff1673ffffffffffffffffffffffffffffffffffffffff1681526020019060010190808311610fbd575b5050505050915050919050565b826005548110611058576040517f08c379a000000000000000000000000000000000000000000000000000000000815260040161104f90613aee565b60405180910390fd5b833373ffffffffffffffffffffffffffffffffffffffff165f5f8381526020019081526020015f206006015f9054906101000a900473ffffffffffffffffffffffffffffffffffffffff1673ffffffffffffffffffffffffffffffffffffffff16146110f9576040517f08c379a00000000000000000000000000000000000000000000000000000000081526004016110f090613bf0565b60405180910390fd5b83835f5f8881526020019081526020015f20600101918261111b929190613db8565b505050505050565b60608060608060055467ffffffffffffffff81111561114557611144612c58565b5b60405190808252806020026020018201604052801561117857816020015b60608152602001906001900390816111635790505b50935060055467ffffffffffffffff81111561119757611196612c58565b5b6040519080825280602002602001820160405280156111c55781602001602082028036833780820191505090505b50925060055467ffffffffffffffff8111156111e4576111e3612c58565b5b6040519080825280602002602001820160405280156112125781602001602082028036833780820191505090505b50915060055467ffffffffffffffff81111561123157611230612c58565b5b60405190808252806020026020018201604052801561125f5781602001602082028036833780820191505090505b5090505f5f90505b60055481101561142d575f5f8281526020019081526020015f205f01805461128e90613a74565b80601f01602080910402602001604051908101604052809291908181526020018280546112ba90613a74565b80156113055780601f106112dc57610100808354040283529160200191611305565b820191905f5260205f20905b8154815290600101906020018083116112e857829003601f168201915b505050505085828151811061131d5761131c613e85565b5b60200260200101819052505f5f8281526020019081526020015f206003015f9054906101000a900460ff1684828151811061135b5761135a613e85565b5b6020026020010190151590811515815250505f5f8281526020019081526020015f206004015483828151811061139457611393613e85565b5b6020026020010181815250505f5f8281526020019081526020015f206006015f9054906101000a900473ffffffffffffffffffffffffffffffffffffffff168282815181106113e6576113e5613e85565b5b602002602001019073ffffffffffffffffffffffffffffffffffffffff16908173ffffffffffffffffffffffffffffffffffffffff16815250508080600101915050611267565b5090919293565b606081600554811061147b576040517f08c379a000000000000000000000000000000000000000000000000000000000815260040161147290613aee565b60405180910390fd5b823373ffffffffffffffffffffffffffffffffffffffff165f5f8381526020019081526020015f206006015f9054906101000a900473ffffffffffffffffffffffffffffffffffffffff1673ffffffffffffffffffffffffffffffffffffffff161461151c576040517f08c379a000000000000000000000000000000000000000000000000000000000815260040161151390613bf0565b60405180910390fd5b5f60035f8681526020019081526020015f208054806020026020016040519081016040528092919081815260200182805480156115ab57602002820191905f5260205f20905b815f9054906101000a900473ffffffffffffffffffffffffffffffffffffffff1673ffffffffffffffffffffffffffffffffffffffff1681526020019060010190808311611562575b505050505090505f815167ffffffffffffffff8111156115ce576115cd612c58565b5b60405190808252806020026020018201604052801561160757816020015b6115f46128a1565b8152602001906001900390816115ec5790505b5090505f5f90505b82518110156119105760015f8881526020019081526020015f205f84838151811061163d5761163c613e85565b5b602002602001015173ffffffffffffffffffffffffffffffffffffffff1673ffffffffffffffffffffffffffffffffffffffff1681526020019081526020015f206040518060c00160405290815f82015481526020016001820180546116a290613a74565b80601f01602080910402602001604051908101604052809291908181526020018280546116ce90613a74565b80156117195780601f106116f057610100808354040283529160200191611719565b820191905f5260205f20905b8154815290600101906020018083116116fc57829003601f168201915b5050505050815260200160028201805461173290613a74565b80601f016020809104026020016040519081016040528092919081815260200182805461175e90613a74565b80156117a95780601f10611780576101008083540402835291602001916117a9565b820191905f5260205f20905b81548152906001019060200180831161178c57829003601f168201915b5050505050815260200160038201805480602002602001604051908101604052809291908181526020015f905b8282101561187e578382905f5260205f200180546117f390613a74565b80601f016020809104026020016040519081016040528092919081815260200182805461181f90613a74565b801561186a5780601f106118415761010080835404028352916020019161186a565b820191905f5260205f20905b81548152906001019060200180831161184d57829003601f168201915b5050505050815260200190600101906117d6565b50505050815260200160048201548152602001600582015f9054906101000a900473ffffffffffffffffffffffffffffffffffffffff1673ffffffffffffffffffffffffffffffffffffffff1673ffffffffffffffffffffffffffffffffffffffff16815250508282815181106118f8576118f7613e85565b5b6020026020010181905250808060010191505061160f565b5080945050505050919050565b5f8888905011611962576040517f08c379a000000000000000000000000000000000000000000000000000000000815260040161195990613efc565b60405180910390fd5b5f84849050116119a7576040517f08c379a000000000000000000000000000000000000000000000000000000000815260040161199e90613f8a565b60405180910390fd5b8181905084849050146119ef576040517f08c379a00000000000000000000000000000000000000000000000000000000081526004016119e690614018565b60405180910390fd5b5f600554905088885f5f8481526020019081526020015f205f019182611a16929190613db8565b5086865f5f8481526020019081526020015f206001019182611a39929190613db8565b5060015f5f8381526020019081526020015f206003015f6101000a81548160ff0219169083151502179055505f5f5f8381526020019081526020015f2060040181905550425f5f8381526020019081526020015f2060050181905550335f5f8381526020019081526020015f206006015f6101000a81548173ffffffffffffffffffffffffffffffffffffffff021916908373ffffffffffffffffffffffffffffffffffffffff1602179055505f5f90505b85859050811015611c15575f5f8381526020019081526020015f206002016040518060400160405280888885818110611b2757611b26613e85565b5b9050602002810190611b399190614042565b8080601f0160208091040260200160405190810160405280939291908181526020018383808284375f81840152601f19601f820116905080830192505050505050508152602001868685818110611b9357611b92613e85565b5b9050602002016020810190611ba891906140a4565b1515815250908060018154018082558091505060019003905f5260205f2090600202015f909190919091505f820151815f019081611be691906140cf565b506020820151816001015f6101000a81548160ff02191690831515021790555050508080600101915050611aeb565b5060045f3373ffffffffffffffffffffffffffffffffffffffff1673ffffffffffffffffffffffffffffffffffffffff1681526020019081526020015f2081908060018154018082558091505060019003905f5260205f20015f909190919091505560055f815480929190611c8990613b39565b91905055503373ffffffffffffffffffffffffffffffffffffffff16817f661055a30609f061d3ecaab4ec5206562172193fde848f897eaa92bb56db7e2c8b8b8989905042604051611cde94939291906141ca565b60405180910390a3505050505050505050565b60065481565b5f826005548110611d3d576040517f08c379a0000000000000000000000000000000000000000000000000000000008152600401611d3490613aee565b60405180910390fd5b5f60015f8681526020019081526020015f205f8573ffffffffffffffffffffffffffffffffffffffff1673ffffffffffffffffffffffffffffffffffffffff1681526020019081526020015f20600401541191505092915050565b606060045f8373ffffffffffffffffffffffffffffffffffffffff1673ffffffffffffffffffffffffffffffffffffffff1681526020019081526020015f20805480602002602001604051908101604052809291908181526020018280548015611e1f57602002820191905f5260205f20905b815481526020019060010190808311611e0b575b50505050509050919050565b6003602052815f5260405f208181548110611e44575f80fd5b905f5260205f20015f915091509054906101000a900473ffffffffffffffffffffffffffffffffffffffff1681565b5f5f600554600654915091509091565b6060816005548110611eca576040517f08c379a0000000000000000000000000000000000000000000000000000000008152600401611ec190613aee565b60405180910390fd5b5f5f8481526020019081526020015f20600201805480602002602001604051908101604052809291908181526020015f905b82821015611fd5578382905f5260205f2090600202016040518060400160405290815f82018054611f2c90613a74565b80601f0160208091040260200160405190810160405280929190818152602001828054611f5890613a74565b8015611fa35780601f10611f7a57610100808354040283529160200191611fa3565b820191905f5260205f20905b815481529060010190602001808311611f8657829003601f168201915b50505050508152602001600182015f9054906101000a900460ff16151515158152505081526020019060010190611efc565b50505050915050919050565b866005548110612026576040517f08c379a000000000000000000000000000000000000000000000000000000000815260040161201d90613aee565b60405180910390fd5b5f5f8981526020019081526020015f206003015f9054906101000a900460ff16612085576040517f08c379a000000000000000000000000000000000000000000000000000000000815260040161207c90614252565b60405180910390fd5b5f87879050116120ca576040517f08c379a00000000000000000000000000000000000000000000000000000000081526004016120c1906142ba565b60405180910390fd5b5f858590501161210f576040517f08c379a000000000000000000000000000000000000000000000000000000000815260040161210690614322565b60405180910390fd5b60025f8981526020019081526020015f20858560405161213092919061436e565b90815260200160405180910390205f9054906101000a900460ff161561218b576040517f08c379a0000000000000000000000000000000000000000000000000000000008152600401612182906143f6565b60405180910390fd5b5f60015f8a81526020019081526020015f205f3373ffffffffffffffffffffffffffffffffffffffff1673ffffffffffffffffffffffffffffffffffffffff1681526020019081526020015f20600401541461221c576040517f08c379a000000000000000000000000000000000000000000000000000000000815260040161221390614484565b60405180910390fd5b5f5f8981526020019081526020015f20600201805490508383905014612277576040517f08c379a000000000000000000000000000000000000000000000000000000000815260040161226e90614512565b60405180910390fd5b5f5f90505b5f5f8a81526020019081526020015f2060020180549050811015612356575f5f8a81526020019081526020015f2060020181815481106122bf576122be613e85565b5b905f5260205f2090600202016001015f9054906101000a900460ff1615612349575f8484838181106122f4576122f3613e85565b5b90506020028101906123069190614042565b905011612348576040517f08c379a000000000000000000000000000000000000000000000000000000000815260040161233f9061457a565b60405180910390fd5b5b808060010191505061227c565b506040518060c0016040528089815260200188888080601f0160208091040260200160405190810160405280939291908181526020018383808284375f81840152601f19601f82011690508083019250505050505050815260200186868080601f0160208091040260200160405190810160405280939291908181526020018383808284375f81840152601f19601f8201169050808301925050505050505081526020018484906124079190614649565b81526020014281526020013373ffffffffffffffffffffffffffffffffffffffff1681525060015f8a81526020019081526020015f205f3373ffffffffffffffffffffffffffffffffffffffff1673ffffffffffffffffffffffffffffffffffffffff1681526020019081526020015f205f820151815f0155602082015181600101908161249591906140cf565b5060408201518160020190816124ab91906140cf565b5060608201518160030190805190602001906124c89291906128ea565b506080820151816004015560a0820151816005015f6101000a81548173ffffffffffffffffffffffffffffffffffffffff021916908373ffffffffffffffffffffffffffffffffffffffff160217905550905050600160025f8a81526020019081526020015f20868660405161253f92919061436e565b90815260200160405180910390205f6101000a81548160ff02191690831515021790555060035f8981526020019081526020015f2033908060018154018082558091505060019003905f5260205f20015f9091909190916101000a81548173ffffffffffffffffffffffffffffffffffffffff021916908373ffffffffffffffffffffffffffffffffffffffff1602179055505f5f8981526020019081526020015f206004015f8154809291906125f590613b39565b919050555060065f81548092919061260c90613b39565b91905055503373ffffffffffffffffffffffffffffffffffffffff16887f5ed33d17f508eab7440e929d15fda3db2221f6d15ceaa716b92b29a48fa051c187878b8b4260405161266095949392919061465d565b60405180910390a35050505050505050565b5f8260055481106126b8576040517f08c379a00000000000000000000000000000000000000000000000000000000081526004016126af90613aee565b60405180910390fd5b8273ffffffffffffffffffffffffffffffffffffffff165f5f8681526020019081526020015f206006015f9054906101000a900473ffffffffffffffffffffffffffffffffffffffff1673ffffffffffffffffffffffffffffffffffffffff161491505092915050565b826005548110612767576040517f08c379a000000000000000000000000000000000000000000000000000000000815260040161275e90613aee565b60405180910390fd5b833373ffffffffffffffffffffffffffffffffffffffff165f5f8381526020019081526020015f206006015f9054906101000a900473ffffffffffffffffffffffffffffffffffffffff1673ffffffffffffffffffffffffffffffffffffffff1614612808576040517f08c379a00000000000000000000000000000000000000000000000000000000081526004016127ff90613bf0565b60405180910390fd5b5f848490501161284d576040517f08c379a000000000000000000000000000000000000000000000000000000000815260040161284490613efc565b60405180910390fd5b83835f5f8881526020019081526020015f205f01918261286e929190613db8565b505050505050565b6004602052815f5260405f20818154811061288f575f80fd5b905f5260205f20015f91509150505481565b6040518060c001604052805f81526020016060815260200160608152602001606081526020015f81526020015f73ffffffffffffffffffffffffffffffffffffffff1681525090565b828054828255905f5260205f20908101928215612930579160200282015b8281111561292f57825182908161291f91906140cf565b5091602001919060010190612908565b5b50905061293d9190612941565b5090565b5b80821115612960575f81816129579190612964565b50600101612942565b5090565b50805461297090613a74565b5f825580601f10612981575061299e565b601f0160209004905f5260205f209081019061299d91906129a1565b5b50565b5b808211156129b8575f815f9055506001016129a2565b5090565b5f604051905090565b5f5ffd5b5f5ffd5b5f819050919050565b6129df816129cd565b81146129e9575f5ffd5b50565b5f813590506129fa816129d6565b92915050565b5f73ffffffffffffffffffffffffffffffffffffffff82169050919050565b5f612a2982612a00565b9050919050565b612a3981612a1f565b8114612a43575f5ffd5b50565b5f81359050612a5481612a30565b92915050565b5f5f60408385031215612a7057612a6f6129c5565b5b5f612a7d858286016129ec565b9250506020612a8e85828601612a46565b9150509250929050565b612aa1816129cd565b82525050565b5f81519050919050565b5f82825260208201905092915050565b8281835e5f83830152505050565b5f601f19601f8301169050919050565b5f612ae982612aa7565b612af38185612ab1565b9350612b03818560208601612ac1565b612b0c81612acf565b840191505092915050565b612b2081612a1f565b82525050565b5f60a082019050612b395f830188612a98565b8181036020830152612b4b8187612adf565b90508181036040830152612b5f8186612adf565b9050612b6e6060830185612a98565b612b7b6080830184612b17565b9695505050505050565b5f60208284031215612b9a57612b996129c5565b5b5f612ba7848285016129ec565b91505092915050565b5f8115159050919050565b612bc481612bb0565b82525050565b5f60c0820190508181035f830152612be28189612adf565b90508181036020830152612bf68188612adf565b9050612c056040830187612bbb565b612c126060830186612a98565b612c1f6080830185612a98565b612c2c60a0830184612b17565b979650505050505050565b5f602082019050612c4a5f830184612a98565b92915050565b5f5ffd5b5f5ffd5b7f4e487b71000000000000000000000000000000000000000000000000000000005f52604160045260245ffd5b612c8e82612acf565b810181811067ffffffffffffffff82111715612cad57612cac612c58565b5b80604052505050565b5f612cbf6129bc565b9050612ccb8282612c85565b919050565b5f67ffffffffffffffff821115612cea57612ce9612c58565b5b612cf382612acf565b9050602081019050919050565b828183375f83830152505050565b5f612d20612d1b84612cd0565b612cb6565b905082815260208101848484011115612d3c57612d3b612c54565b5b612d47848285612d00565b509392505050565b5f82601f830112612d6357612d62612c50565b5b8135612d73848260208601612d0e565b91505092915050565b5f5f60408385031215612d9257612d916129c5565b5b5f612d9f858286016129ec565b925050602083013567ffffffffffffffff811115612dc057612dbf6129c9565b5b612dcc85828601612d4f565b9150509250929050565b5f602082019050612de95f830184612bbb565b92915050565b5f60e0820190508181035f830152612e07818a612adf565b90508181036020830152612e1b8189612adf565b9050612e2a6040830188612a98565b612e376060830187612bbb565b612e446080830186612a98565b612e5160a0830185612a98565b612e5e60c0830184612b17565b98975050505050505050565b5f60208284031215612e7f57612e7e6129c5565b5b5f612e8c84828501612a46565b91505092915050565b5f604082019050612ea85f830185612a98565b612eb56020830184612a98565b9392505050565b612ec581612bb0565b8114612ecf575f5ffd5b50565b5f81359050612ee081612ebc565b92915050565b5f5f60408385031215612efc57612efb6129c5565b5b5f612f09858286016129ec565b9250506020612f1a85828601612ed2565b9150509250929050565b612f2d816129cd565b82525050565b5f82825260208201905092915050565b5f612f4d82612aa7565b612f578185612f33565b9350612f67818560208601612ac1565b612f7081612acf565b840191505092915050565b5f81519050919050565b5f82825260208201905092915050565b5f819050602082019050919050565b5f612faf8383612f43565b905092915050565b5f602082019050919050565b5f612fcd82612f7b565b612fd78185612f85565b935083602082028501612fe985612f95565b805f5b8581101561302457848403895281516130058582612fa4565b945061301083612fb7565b925060208a01995050600181019050612fec565b50829750879550505050505092915050565b61303f81612a1f565b82525050565b5f60c083015f83015161305a5f860182612f24565b50602083015184820360208601526130728282612f43565b9150506040830151848203604086015261308c8282612f43565b915050606083015184820360608601526130a68282612fc3565b91505060808301516130bb6080860182612f24565b5060a08301516130ce60a0860182613036565b508091505092915050565b5f6020820190508181035f8301526130f18184613045565b905092915050565b5f81519050919050565b5f82825260208201905092915050565b5f819050602082019050919050565b5f61312d8383613036565b60208301905092915050565b5f602082019050919050565b5f61314f826130f9565b6131598185613103565b935061316483613113565b805f5b8381101561319457815161317b8882613122565b975061318683613139565b925050600181019050613167565b5085935050505092915050565b5f6020820190508181035f8301526131b98184613145565b905092915050565b5f5ffd5b5f5ffd5b5f5f83601f8401126131de576131dd612c50565b5b8235905067ffffffffffffffff8111156131fb576131fa6131c1565b5b602083019150836001820283011115613217576132166131c5565b5b9250929050565b5f5f5f60408486031215613235576132346129c5565b5b5f613242868287016129ec565b935050602084013567ffffffffffffffff811115613263576132626129c9565b5b61326f868287016131c9565b92509250509250925092565b5f82825260208201905092915050565b5f61329582612f7b565b61329f818561327b565b9350836020820285016132b185612f95565b805f5b858110156132ec57848403895281516132cd8582612fa4565b94506132d883612fb7565b925060208a019950506001810190506132b4565b50829750879550505050505092915050565b5f81519050919050565b5f82825260208201905092915050565b5f819050602082019050919050565b61333081612bb0565b82525050565b5f6133418383613327565b60208301905092915050565b5f602082019050919050565b5f613363826132fe565b61336d8185613308565b935061337883613318565b805f5b838110156133a857815161338f8882613336565b975061339a8361334d565b92505060018101905061337b565b5085935050505092915050565b5f81519050919050565b5f82825260208201905092915050565b5f819050602082019050919050565b5f6133e98383612f24565b60208301905092915050565b5f602082019050919050565b5f61340b826133b5565b61341581856133bf565b9350613420836133cf565b805f5b8381101561345057815161343788826133de565b9750613442836133f5565b925050600181019050613423565b5085935050505092915050565b5f6080820190508181035f830152613475818761328b565b905081810360208301526134898186613359565b9050818103604083015261349d8185613401565b905081810360608301526134b18184613145565b905095945050505050565b5f81519050919050565b5f82825260208201905092915050565b5f819050602082019050919050565b5f60c083015f8301516134fa5f860182612f24565b50602083015184820360208601526135128282612f43565b9150506040830151848203604086015261352c8282612f43565b915050606083015184820360608601526135468282612fc3565b915050608083015161355b6080860182612f24565b5060a083015161356e60a0860182613036565b508091505092915050565b5f61358483836134e5565b905092915050565b5f602082019050919050565b5f6135a2826134bc565b6135ac81856134c6565b9350836020820285016135be856134d6565b805f5b858110156135f957848403895281516135da8582613579565b94506135e58361358c565b925060208a019950506001810190506135c1565b50829750879550505050505092915050565b5f6020820190508181035f8301526136238184613598565b905092915050565b5f5f83601f8401126136405761363f612c50565b5b8235905067ffffffffffffffff81111561365d5761365c6131c1565b5b602083019150836020820283011115613679576136786131c5565b5b9250929050565b5f5f83601f84011261369557613694612c50565b5b8235905067ffffffffffffffff8111156136b2576136b16131c1565b5b6020830191508360208202830111156136ce576136cd6131c5565b5b9250929050565b5f5f5f5f5f5f5f5f6080898b0312156136f1576136f06129c5565b5b5f89013567ffffffffffffffff81111561370e5761370d6129c9565b5b61371a8b828c016131c9565b9850985050602089013567ffffffffffffffff81111561373d5761373c6129c9565b5b6137498b828c016131c9565b9650965050604089013567ffffffffffffffff81111561376c5761376b6129c9565b5b6137788b828c0161362b565b9450945050606089013567ffffffffffffffff81111561379b5761379a6129c9565b5b6137a78b828c01613680565b92509250509295985092959890939650565b5f6020820190508181035f8301526137d18184613401565b905092915050565b5f5f604083850312156137ef576137ee6129c5565b5b5f6137fc858286016129ec565b925050602061380d858286016129ec565b9150509250929050565b5f60208201905061382a5f830184612b17565b92915050565b5f81519050919050565b5f82825260208201905092915050565b5f819050602082019050919050565b5f604083015f8301518482035f8601526138738282612f43565b91505060208301516138886020860182613327565b508091505092915050565b5f61389e8383613859565b905092915050565b5f602082019050919050565b5f6138bc82613830565b6138c6818561383a565b9350836020820285016138d88561384a565b805f5b8581101561391357848403895281516138f48582613893565b94506138ff836138a6565b925060208a019950506001810190506138db565b50829750879550505050505092915050565b5f6020820190508181035f83015261393d81846138b2565b905092915050565b5f5f5f5f5f5f5f6080888a0312156139605761395f6129c5565b5b5f61396d8a828b016129ec565b975050602088013567ffffffffffffffff81111561398e5761398d6129c9565b5b61399a8a828b016131c9565b9650965050604088013567ffffffffffffffff8111156139bd576139bc6129c9565b5b6139c98a828b016131c9565b9450945050606088013567ffffffffffffffff8111156139ec576139eb6129c9565b5b6139f88a828b0161362b565b925092505092959891949750929550565b5f5f60408385031215613a1f57613a1e6129c5565b5b5f613a2c85828601612a46565b9250506020613a3d858286016129ec565b9150509250929050565b7f4e487b71000000000000000000000000000000000000000000000000000000005f52602260045260245ffd5b5f6002820490506001821680613a8b57607f821691505b602082108103613a9e57613a9d613a47565b5b50919050565b7f466f726d20646f6573206e6f74206578697374000000000000000000000000005f82015250565b5f613ad8601383612ab1565b9150613ae382613aa4565b602082019050919050565b5f6020820190508181035f830152613b0581613acc565b9050919050565b7f4e487b71000000000000000000000000000000000000000000000000000000005f52601160045260245ffd5b5f613b43826129cd565b91507fffffffffffffffffffffffffffffffffffffffffffffffffffffffffffffffff8203613b7557613b74613b0c565b5b600182019050919050565b7f4f6e6c7920666f726d2063726561746f722063616e20706572666f726d2074685f8201527f697320616374696f6e0000000000000000000000000000000000000000000000602082015250565b5f613bda602983612ab1565b9150613be582613b80565b604082019050919050565b5f6020820190508181035f830152613c0781613bce565b9050919050565b5f82905092915050565b5f819050815f5260205f209050919050565b5f6020601f8301049050919050565b5f82821b905092915050565b5f60088302613c747fffffffffffffffffffffffffffffffffffffffffffffffffffffffffffffffff82613c39565b613c7e8683613c39565b95508019841693508086168417925050509392505050565b5f819050919050565b5f613cb9613cb4613caf846129cd565b613c96565b6129cd565b9050919050565b5f819050919050565b613cd283613c9f565b613ce6613cde82613cc0565b848454613c45565b825550505050565b5f5f905090565b613cfd613cee565b613d08818484613cc9565b505050565b5b81811015613d2b57613d205f82613cf5565b600181019050613d0e565b5050565b601f821115613d7057613d4181613c18565b613d4a84613c2a565b81016020851015613d59578190505b613d6d613d6585613c2a565b830182613d0d565b50505b505050565b5f82821c905092915050565b5f613d905f1984600802613d75565b1980831691505092915050565b5f613da88383613d81565b9150826002028217905092915050565b613dc28383613c0e565b67ffffffffffffffff811115613ddb57613dda612c58565b5b613de58254613a74565b613df0828285613d2f565b5f601f831160018114613e1d575f8415613e0b578287013590505b613e158582613d9d565b865550613e7c565b601f198416613e2b86613c18565b5f5b82811015613e5257848901358255600182019150602085019450602081019050613e2d565b86831015613e6f5784890135613e6b601f891682613d81565b8355505b6001600288020188555050505b50505050505050565b7f4e487b71000000000000000000000000000000000000000000000000000000005f52603260045260245ffd5b7f5469746c652069732072657175697265640000000000000000000000000000005f82015250565b5f613ee6601183612ab1565b9150613ef182613eb2565b602082019050919050565b5f6020820190508181035f830152613f1381613eda565b9050919050565b7f4174206c65617374206f6e65207175657374696f6e20697320726571756972655f8201527f6400000000000000000000000000000000000000000000000000000000000000602082015250565b5f613f74602183612ab1565b9150613f7f82613f1a565b604082019050919050565b5f6020820190508181035f830152613fa181613f68565b9050919050565b7f5175657374696f6e7320616e6420726571756972656420666c616773206d75735f8201527f7420686176652073616d65206c656e6774680000000000000000000000000000602082015250565b5f614002603283612ab1565b915061400d82613fa8565b604082019050919050565b5f6020820190508181035f83015261402f81613ff6565b9050919050565b5f5ffd5b5f5ffd5b5f5ffd5b5f5f8335600160200384360303811261405e5761405d614036565b5b80840192508235915067ffffffffffffffff8211156140805761407f61403a565b5b60208301925060018202360383131561409c5761409b61403e565b5b509250929050565b5f602082840312156140b9576140b86129c5565b5b5f6140c684828501612ed2565b91505092915050565b6140d882612aa7565b67ffffffffffffffff8111156140f1576140f0612c58565b5b6140fb8254613a74565b614106828285613d2f565b5f60209050601f831160018114614137575f8415614125578287015190505b61412f8582613d9d565b865550614196565b601f19841661414586613c18565b5f5b8281101561416c57848901518255600182019150602085019450602081019050614147565b868310156141895784890151614185601f891682613d81565b8355505b6001600288020188555050505b505050505050565b5f6141a98385612ab1565b93506141b6838584612d00565b6141bf83612acf565b840190509392505050565b5f6060820190508181035f8301526141e381868861419e565b90506141f26020830185612a98565b6141ff6040830184612a98565b95945050505050565b7f466f726d206973206e6f742061637469766500000000000000000000000000005f82015250565b5f61423c601283612ab1565b915061424782614208565b602082019050919050565b5f6020820190508181035f83015261426981614230565b9050919050565b7f557365726e616d652069732072657175697265640000000000000000000000005f82015250565b5f6142a4601483612ab1565b91506142af82614270565b602082019050919050565b5f6020820190508181035f8301526142d181614298565b9050919050565b7f456d61696c2069732072657175697265640000000000000000000000000000005f82015250565b5f61430c601183612ab1565b9150614317826142d8565b602082019050919050565b5f6020820190508181035f83015261433981614300565b9050919050565b5f81905092915050565b5f6143558385614340565b9350614362838584612d00565b82840190509392505050565b5f61437a82848661434a565b91508190509392505050565b7f456d61696c20616c7265616479207265676973746572656420666f72207468695f8201527f7320666f726d0000000000000000000000000000000000000000000000000000602082015250565b5f6143e0602683612ab1565b91506143eb82614386565b604082019050919050565b5f6020820190508181035f83015261440d816143d4565b9050919050565b7f4164647265737320616c7265616479207375626d697474656420746f207468695f8201527f7320666f726d0000000000000000000000000000000000000000000000000000602082015250565b5f61446e602683612ab1565b915061447982614414565b604082019050919050565b5f6020820190508181035f83015261449b81614462565b9050919050565b7f416e7377657220636f756e74206d757374206d61746368207175657374696f6e5f8201527f20636f756e740000000000000000000000000000000000000000000000000000602082015250565b5f6144fc602683612ab1565b9150614507826144a2565b604082019050919050565b5f6020820190508181035f830152614529816144f0565b9050919050565b7f5265717569726564207175657374696f6e206e6f7420616e73776572656400005f82015250565b5f614564601e83612ab1565b915061456f82614530565b602082019050919050565b5f6020820190508181035f83015261459181614558565b9050919050565b5f67ffffffffffffffff8211156145b2576145b1612c58565b5b602082029050602081019050919050565b5f6145d56145d084614598565b612cb6565b905080838252602082019050602084028301858111156145f8576145f76131c5565b5b835b8181101561463f57803567ffffffffffffffff81111561461d5761461c612c50565b5b80860161462a8982612d4f565b855260208501945050506020810190506145fa565b5050509392505050565b5f6146553684846145c3565b905092915050565b5f6060820190508181035f83015261467681878961419e565b9050818103602083015261468b81858761419e565b905061469a6040830184612a98565b969550505050505056fea26469706673582212202ca07a0fd03cc54ee20ba98499b5650fc9be44f788bd6a02865dc4c9066f05ff64736f6c634300081e0033","linkReferences":{}},"methodIdentifiers":{"createForm(string,string,string[],bool[])":"9eba72e8","emailExists(uint256,string)":"453e1176","formSubmitters(uint256,uint256)":"b3b26ae2","forms(uint256)":"18c864e3","getAllFormSubmissions(uint256)":"8f207f08","getAllForms()":"8c140ba2","getForm(uint256)":"479fa2c3","getFormQuestions(uint256)":"c770b2ab","getFormSubmitters(uint256)":"5711374e","getStats()":"c59d4847","getSubmission(uint256,address)":"55f0e221","getUserForms(address)":"ad0fcdf9","getUserStats(address)":"4e43603a","hasSubmitted(uint256,address)":"a57d3806","isFormCreator(uint256,address)":"cb2f8708","setFormActive(uint256,bool)":"5509745e","submissions(uint256,address)":"0e4dbf5c","submitForm(uint256,string,string,string[])":"c86b2cc8","totalForms()":"3551c315","totalSubmissions()":"a3954016","updateFormDescription(uint256,string)":"808a35b8","updateFormTitle(uint256,string)":"cf68f015","userForms(address,uint256)":"e4806e19"},"id":19}